:020000040800F2
:10000000D084002049010008CD2F00080B0D000806
:10001000C92F0008430B00083B390008000000000E
:10002000000000000000000000000000C9310008CE
:10003000470B000800000000553000080933000895
:100040006301000863010008630100086301000800
:1000500063010008630100086301000863010008F0
:1000600063010008630100086301000863010008E0
:1000700063010008630100086301000863010008D0
:1000800063010008630100086301000863010008C0
:1000900063010008630100086301000863010008B0
:1000A00063010008630100086301000863010008A0
:1000B0006D330008CD3400086301000863010008B7
:1000C0006301000863010008630100086301000880
:1000D000630100089D360008253700086301000809
:1000E0006301000863010008630100086301000860
:1000F0006301000863010008630100086301000850
:10010000630100086301000863010008630100083F
:10011000630100086301000863010008630100082F
:10012000630100086301000863010008630100081F
:10013000DFF810D000F02CFC004800470DF7010854
:10014000AFF30080D084002006488047064800476F
:10015000FEE7FEE7FEE7FEE7FEE7FEE7FEE7FEE777
:10016000FEE7FEE70D3300083101000840EA010315
:100170009B0703D009E008C9121F08C0042AFAD25D
:1001800003E011F8013B00F8013B521EF9D2704721
:10019000D2B201E000F8012B491EFBD270470022C9
:1001A000F6E710B513460A4604461946FFF7F0FF76
:1001B000204610BD421C10F8011B0029FBD1801AFB
:1001C000704710B5002200E0521C835C8C5CA34297
:1001D00001D1002BF8D1D8B2E1B2401A10BD0346CC
:1001E00011F8012B00F8012B002AF9D118467047AD
:1001F000F0B480EA0102D40F4200B2EB410F02D208
:100200000246084611464A0042D0C30DDDB2C1F392
:10021000C752AD1A202D35DAC1F3160141F40002A0
:1002200004B15242C5F1200602FA06F12A411044F7
:10023000B3EBD05F23D0C4B1012DA0EBC35009DCD8
:10024000F0BC4FF0004202EAC352DBB200F50000FE
:1002500000F054BA400000F1807000EBC350A0F1F0
:10026000807040EAD170490009E0490841EAC07154
:10027000A0EBC35000F50000400800EBC350F0BCF9
:1002800000F033BA6142012202EB4101001BF6E7A4
:10029000F0BC704781F00041AAE780F00040A7E77A
:1002A00080EA010210B502F00043400022D04A006B
:1002B0001FD0010E01EB1261C0F35600C2F35602CB
:1002C00040F4000042F40002A0FB022000047F3949
:1002D000140400D0401C50EA124001D44000491ED2
:1002E000C2B20C0604EBD010401C4008802A02D099
:1002F00003E0002010BD20F00100002900DA0020FA
:10030000184310BD30B480EA010202F0004530F01D
:10031000004221F0004013D090B1C30DD40DC2F3C0
:100320001601C0F31600E41A41F4000140F4000283
:100330007D34914201D3641C00E04900002C02DAB4
:1003400030BC002070474FF400000023914201D3DD
:10035000891A034340084FEA4101F7D151B1914254
:1003600002D14FF0004105E002D24FF0010101E05F
:100370006FF0010103EBC450284430BC00F0B5B964
:100380002DE9FE4F81EA030404F0004421F000410E
:1003900000944FF0000B23F0004350EA01045ED0BC
:1003A00052EA03045BD0C3F30A54C1F30A552C4448
:1003B000A4F2F3340194A0FB0254C1F3130141F4FD
:1003C0008011C3F3130343F4801301FB024400FBC9
:1003D000034E840A970A44EA815447EA8357A4FBF0
:1003E000076802958D0A05FB07854FEA932C04FBED
:1003F0000C542705029D4FEA065847EA1637B5EB1D
:1004000008056EEB070C870E920E47EA811742EA49
:100410008312A7FB0201B6EB0B0164EB00042B0D6A
:1004200043EA0C335E1844EB1C50DA465146E7FBB6
:100430000201C5F313044FEA0B3343EA14534FEAA6
:100440000432019C43EA0603A4F10C040294009CCC
:10045000CDE900B400F08FF903B0BDE8F08F0020C3
:100460000146F9E72DE9F04D81EA030404F0004B61
:1004700021F0004514464FF0000A23F0004150EAF5
:10048000050220D054EA01021DD0C5F30A570246E6
:10049000C5F31303C1F31300C1F30A5640F48015EA
:1004A00043F48013A7EB0608101BD64608F2FD386C
:1004B00073EB050002D308F1010801E092185B41DB
:1004C000B8F1000F03DA00200146BDE8F08D0020EE
:1004D0004FF48011064684460EE0171B73EB0507A8
:1004E00005D3121B63EB050306434CEA010C4908D4
:1004F0004FEA300092185B4150EA0107EDD152EA11
:10050000030012D082EA040083EA0501084305D003
:10051000101BAB4106D20122002306E000224FF05F
:10052000004302E06FF0010253101AEB06004CEB9F
:10053000085110EB0A0041EB0B01BDE8F04D00F053
:100540000BB9C10F80EAE0700844CA079623002166
:1005500000F0D4B896230022114600F0CFB80EB5B3
:10056000C10F80EAE0700844CA07002140F233431B
:100570008DE80E000A460B4600F0FDF803B000BD02
:1005800000F0004220F00040C10DC0F3160040F41E
:1005900000007F2901DA00207047962903DCC1F1B1
:1005A0009601C84001E096398840002AF4D04042C4
:1005B000704720F00040C10DC0F3160040F4000069
:1005C0007F2901DA00207047962903DCC1F19601EA
:1005D000C8407047963988407047000030B5041E07
:1005E00071F1000404DB4FF00044404264EB010170
:1005F000141E73F1000405DB1C464FF00043524209
:1006000063EB04038B4208BF824230BD30B5041E49
:1006100071F1000404DB4FF00044404264EB01013F
:10062000141E73F1000405DB1C464FF000435242D8
:1006300063EB0403994208BF904230BD30B50B46CE
:10064000014600202022012409E021FA02F59D4202
:1006500005D303FA02F5491B04FA02F52844151ED6
:10066000A2F10102F1DC30BD2DE9F05F054600206A
:1006700092469B4688460646814640241BE0284613
:1006800041464746224600F020F853465A46C01AD3
:10069000914110D311461846224600F08BF92D1ACD
:1006A00067EB01084F4622460120002100F082F945
:1006B00017EB00094E41201EA4F10104DFDC48467F
:1006C00031462A464346BDE8F09F202A04DB203A03
:1006D00021FA02F00021704721FA02F3D040C2F162
:1006E000200291400843194670470029A8BF70476F
:1006F000401C490008BF20F00100704710B4B0FA58
:1007000080FC00FA0CF050EA010404BF10BC7047F2
:1007100049B1CCF1200421FA04F411FA0CF118BF0C
:10072000012121430843A3EB0C01CB1D4FEA0061DB
:100730004FEA102042BF002010BC704700EBC350AE
:1007400010440029A4BF10BC7047401C490008BFDA
:1007500020F0010010BC704710B5141E73F10004A6
:1007600008DA401C41F1000192185B411A4301D1A3
:1007700020F0010010BD2DE9F04D92469B4611B1CD
:10078000B1FA81F202E0B0FA80F22032904600F035
:1007900011F904460F4640EA0A0041EA0B015346AC
:1007A0005A46084313D0114653EA010019D0C8F144
:1007B00040025046FFF789FF05460E46504659460F
:1007C000424600F0F7F8084305D0012004E0204637
:1007D0003946BDE8F08D0020054346EAE0762C431B
:1007E00037430A986305E40AA0EB08000022FD0ADB
:1007F00044EA47540A3002D500200146E9E70105E2
:1008000010196941DDE9084500196941BDE8F04D5D
:10081000A2E72DE9FE4F804681EA0300C00F0C4697
:10082000009021F0004123F00045B8EB0200A941FF
:1008300005D24046214690461C460B46024623F010
:100840000040104347D0270DC7F30A00C3F30A51F5
:100850000290401A019040286BDAC3F3130040F471
:10086000801B0098924620B10023D2EB030A63EB71
:100870000B0B01985946C0F14002504600F09AF81F
:1008800006460D4650465946019A00F0A2F810EB74
:1008900008006141002487EA115284EAE7731A4391
:1008A00040D0009A62B3019A012A4FEA075215DC40
:1008B000001B61EB02014FF0004202EA0752CDE952
:1008C0000042001C41F5801132462B46FFF753FFD2
:1008D00003B0BDE8F08F40462146F9E7001B61EB0D
:1008E0000201001C41F5801300185B412018A2F59D
:1008F000001747EB030140EAD570B6196D4111E0CE
:100900006D084FEA360645EAC0754FEA0752001BEC
:1009100061EB0201001C41F5801149084FEA3000EB
:100920000019514132462B4603B0BDE8F04FFFF7A6
:1009300013BF0098012240000023D0EB020263EBBA
:10094000E073009821464FEAE074B8EB000061EBD9
:100950000401E9E783F000435BE781F0004158E7D9
:10096000C1F30A52C1F3130140F2FF3341F4801185
:100970009A4202DA00200146704740F233439A421D
:10098000A2F2334202DC5242FFF79FBE00F012B8DF
:10099000064C074D06E0E06840F0010394E80700CC
:1009A00098471034AC42F6D3FFF7C6FB44DD02088B
:1009B00064DD0208202A04DB203A00FA02F100205C
:1009C00070479140C2F1200320FA03F3194390408D
:1009D0007047202A06DBCB17203A41FA02F043EA9F
:1009E000E07306E041FA02F3D040C2F120029140E8
:1009F00008431946704770B58C1810F8015B15F064
:100A0000070301D110F8013B2A1106D110F8012B80
:100A100003E010F8016B01F8016B5B1EF9D12B07A5
:100A200005D40023521E0DD401F8013BFAE710F85B
:100A3000013BCB1A921C03E013F8015B01F8015B48
:100A4000521EF9D5A142D8D3002070BD10B500F0D8
:100A500087F910BD70B506460C46154608E03046CD
:100A6000721C96B200F007F804F8010B681E85B2FC
:100A7000002DF4D170BD70B50446002600F024FAB4
:100A80002546E11704EB11610912A02202EB410196
:100A9000C8B200F0E5F900F063FAE11704EB116168
:100AA0000912A4EB0121C8B200F0DAF900F058FAFB
:100AB00000F00AFAA12000F0D3F900F051FA00206A
:100AC00000F096F9064600F025FA304670BD70B584
:100AD00005460C46164606E02178284600F009F83F
:100AE000681C85B2641C301EA6F101018EB2F3D1E0
:100AF00070BD70B504460E4600F0E6F92546E117D4
:100B000004EB11610912A02202EB4101C8B200F00E
:100B1000A7F900F025FAE11704EB11610912A4EB23
:100B20000121C8B200F09CF900F01AFA304600F03A
:100B300097F900F015FA00F0EDF90A2004F018FE1C
:100B400070BD00BFFEE770472DE9F0410246002569
:100B50000026002000230024002791F803C00CF099
:100B60000F0591F803C00CF0100CBCF1000F03D07E
:100B700091F802C04CEA050591F800C0BCF1000FE5
:100B800031D0146800202BE04FF0010C0CFA00F378
:100B9000B1F800C00CEA03069E4220D183004FF05A
:100BA0000F0C0CFA03F7BC4305FA03FC4CEA0404EF
:100BB00091F803C0BCF1280F06D14FF0010C0CFADC
:100BC00000FCC2F814C00AE091F803C0BCF1480F61
:100BD00005D14FF0010C0CFA00FCC2F810C0401C0B
:100BE0000828D1D31460B1F800C0BCF1FF0F34DD88
:100BF000546800202EE000F1080C4FF0010808FABC
:100C00000CF3B1F800C00CEA03069E4221D1830028
:100C10004FF00F0C0CFA03F7BC4305FA03FC4CEA47
:100C2000040491F803C0BCF1280F05D100F1080CB1
:100C300008FA0CF8C2F8148091F803C0BCF1480F10
:100C400007D100F1080C4FF0010808FA0CF8C2F8BF
:100C50001080401C0828CED35460BDE8F08100000D
:100C6000F0B50A46002300240021002500F00046CC
:100C7000B6F1004F02D11D4EF16901E01B4E7168C3
:100C8000C0F3034583B200F44016B6F5401F08D107
:100C900021F07061154E766826F07066134F7E6005
:100CA00012E000F48016B6F5801F06D1032606FA7E
:100CB00005F4A14341F0706106E0460D360103FAE8
:100CC00006F6B14341F0706122B1460D360103FAD8
:100CD00006F6314300F00046B6F1004F02D1034E54
:100CE000F16101E0014E7160F0BD000000000140C3
:100CF0000246002093680B400BB1012000E0002069
:100D00007047416170470161704700BFFEE7000016
:100D100010B500200F4908600F48406820F470406B
:100D20000D4948600846406840F440504860002043
:100D30000A49C1F8AC01022004F040FD0120054938
:100D40000860022004F03AFD00200449C1F8B00117
:100D500010BD0000B00122420010014000002242FC
:100D600008B50121102002F087F94FF4C050ADF80A
:100D7000000010208DF8030003208DF80200694662
:100D80000448FFF7E1FE0120034908600349C1F868
:100D9000AC0108BD00100140B00122420000224217
:100DA00010B500200F4908600F48406820F47040DB
:100DB0000D4948600846406840F4405048600120B2
:100DC0000A49C1F8AC01022004F0F8FC01200549F1
:100DD0000860022004F0F2FC00200449C1F8B001D0
:100DE00010BD0000B001224200100140000022426C
:100DF00070B5054600241748406820F47040154936
:100E000048600846406840F400404860002616E00C
:100E1000002011490860022004F0D0FC01200F4995
:100E2000C1F8B0016006040E0B488438006808B1B0
:100E3000601CC4B2012004F0C1FC701CC6B2082EB4
:100E4000E6DB15B9FFF7ACFF01E0FFF761FF2046D5
:100E500070BD000000100140B0012242000022429B
:100E600070B504461548406820F470401349486046
:100E70000846406840F4405048600020104908602F
:100E8000002517E0E0090E49091F08606006040EFE
:100E9000022004F093FC01200A49C1F8B0010220AD
:100EA00004F08CFC002006490860022004F086FC57
:100EB000681CC5B2082DE5DB70BD000000100140C4
:100EC000B00122420000224210B50F48406820F4D1
:100ED00070400D4948600846406840F44050486002
:100EE00001200A4908600A49C1F8B001042004F051
:100EF00065FC002005490860042004F05FFC002028
:100F00000349C1F8B00110BD00100140AC012242FC
:100F10000000224210B50F48406820F470400D498F
:100F200048600846406840F44050486000200A4944
:100F300008600A49C1F8AC01042004F03FFC01201C
:100F4000054908600549C1F8AC01042004F036FCED
:100F500010BD000000100140B001224200002242FA
:100F600010B500241448406820F4704012494860CD
:100F70000846406840F40040486001200F4908607E
:100F800004F01CFC01200E49C1F8B00104F016FC6D
:100F900007E0601CC4B2FA2C03DDFFF7BBFF0120A1
:100FA00010BD0648803800680028F2D10349091DA9
:100FB000086000BFF4E7000000100140AC012242CD
:100FC0000000224270B5044600260E48058840887D
:100FD00045430021084601F041FD01F099FF00BFA3
:100FE0000DE04FF4807008490861400048610748EF
:100FF000046080204861086180000861761CAE4270
:10100000EFD370BD4C050020001001400C0C0140D6
:101010002DE9F84F07460D4690469946DDF828B071
:10102000A8EB0700401C1FFA80FAA9EB0500401C42
:1010300080B20090002420E0281981B2384601F0E7
:101040000DFD01F065FF002613E04FF480700D499F
:1010500008614000486104FB0A603BF810000A493F
:101060000860802007494861086180000861701CA1
:1010700086B25645E9DB601C84B200988442DBDB13
:10108000BDE8F88F001001400C0C014010B504467B
:1010900049488471002C45D1F020474908804FF41D
:1010A000A07048800846808845F21051884210D1CF
:1010B0004FF43050404908814FF4285048814FF494
:1010C0002C5088814FF4F07008804FF448704880AD
:1010D0001AE03948808841F6631188420DD12C20EE
:1010E000354908812B2048812A2088814FF4F070EF
:1010F00008804FF44870488006E02C202E49088173
:101100002A2048812B2088812B48808845F2103185
:1011100088424CD14FF4A070274908804FF4F070FA
:10112000488044E04FF4A07023490880F0204880B4
:101130000846808845F21051884210D14FF4305053
:101140001D4908814FF4285048814FF42C50888164
:101150004FF4487008804FF4F07048801AE0164849
:10116000808841F6631188420DD12C2012490881F4
:101170002A2048812B2088814FF4487008804FF442
:10118000F070488006E02C200B4908812A20488115
:101190002B2088810848808845F21031884206D18A
:1011A0004FF4F070044908804FF4A070488000208C
:1011B00001F084FA10BD00004C0500202DE9FF4F1E
:1011C00084B081468A460020039002900698A0EBE6
:1011D00009050798A0EB0A06CDF80490CDF800A009
:1011E000002D01DD012705E00DB9002702E04FF0D9
:1011F000FF376D42002E02DD4FF0010806E016B900
:101200004FF0000802E04FF0FF387642B54201DDB2
:101210002C4600E034464FF0000B21E0009A91B2DA
:10122000019A90B200F022F80398284403900298A3
:10123000304402900398A04205DD0398001B039000
:101240000198384401900298A04205DD0298001BE5
:1012500002900098404400900BF101001FFA80FBBF
:10126000601C8345DADD08B0BDE8F08F30B5044678
:101270000D462946204601F0F1FB01F049FE4FF4EE
:1012800080700749086140004861064800880649A7
:10129000086080200249486108618000086130BD13
:1012A00000100140240000200C0C01402DE9F04307
:1012B00006460F469046002445460320A0EB480909
:1012C0003CE07A1B91B2321990B2FFF7CFFF3A1B84
:1012D00091B2721990B2FFF7C9FF3A1991B272191F
:1012E00090B2FFF7C3FF7A1991B2321990B2FFF7AB
:1012F000BDFF7A1991B2321B90B2FFF7B7FF3A19CE
:1013000091B2721B90B2FFF7B1FF7A1B91B2321B00
:1013100090B2FFF7ABFF3A1B91B2721B90B2FFF78E
:10132000A5FF641CB9F1000F03DAA000801D814401
:1013300004E0601B80000A3081446D1EAC42C0DDB9
:10134000BDE8F08330B503460C4615469B488088BF
:1013500045F21051884250D19849488901F0C6FDA4
:101360004FF4807096490861400048611812954911
:1013700008608020924948610861800008618F49B7
:101380004989491C88B201F0B1FD4FF480708C4945
:10139000086140004861D8B28A49086080208849C5
:1013A00048610861800008618449888901F09EFDD8
:1013B0004FF48070824908614000486120128149E1
:1013C000086080207E4948610861800008617B498F
:1013D0008989491C88B201F089FD4FF480707849F1
:1013E000086140004861E0B2764908608020744995
:1013F0004861086180000861C3E07048808841F658
:10140000631188427DD16D48807920B96B4800888E
:10141000401EC01A83B26949488901F067FD4FF444
:10142000807067490861400048611812654908608A
:1014300080206349486108618000086140100861AC
:1014400040004861D8B25F49086080205C4948612B
:10145000086180000861401008614000486118126E
:101460005849086080205649486108618000086139
:101470004010086140004861D8B25249086080209D
:101480004F4948610861800008614C49888901F032
:101490002DFD4FF480704A490861400048612012D8
:1014A0004849086080204649486108618000086119
:1014B0004010086140004861E0B242490860802065
:1014C0003F494861086180000861401008614000A0
:1014D000486120123B490860802039494861086111
:1014E000800008614010086140004861E0B2354961
:1014F000086080203249486108618000086140E04E
:10150000FFE72E49488901F0F1FC4FF480702C4927
:1015100008614000486118122A4908608020284963
:10152000486108618000086140100861400048611E
:10153000D8B22449086080202149486108618000B0
:1015400008611E49888901F0D1FC4FF480701C4964
:1015500008614000486120121A490860802018493B
:1015600048610861800008614010086140004861DE
:10157000E0B2144908608020114948610861800088
:1015800008614FF480700E494861400048610B4883
:1015900000890C4908608020094948610861800081
:1015A00008614010086140004861064805608020DD
:1015B000486108618000086130BD00004C050020D2
:1015C000001001400C0C01402DE9F04F05460E467D
:1015D00017469846DDF824A04FF0000B781B401CFE
:1015E0001FFA80FB34461EE02146284601F036FAF9
:1015F00001F08EFC4FF0000911E04FF480700C49AF
:101600000861400048610B48C0F800A08020486194
:1016100008618000086109F101001FFA80F9D945CD
:10162000EBDB601C84B24445DEDDBDE8F08F0000DA
:10163000001001400C0C014008B50121192001F0F7
:101640001BFD0121FE48FFF70BFB4FF4F860ADF8DE
:10165000000010208DF8030003208DF80200694679
:10166000F848FFF771FA4FF4F861F648FFF74BFBC3
:101670004FF6FF70ADF800006946F348FFF764FAD3
:101680004FF6FF71F048FFF73EFB322004F070F890
:101690000121002001F044FC322004F069F8D3203D
:1016A00001F024FC00F0DAFFE849888000F0D6FF62
:1016B000E649888000F0D2FFE449888008468088A7
:1016C0004FF6FF7101EA0020E049888000F0C6FF74
:1016D000DE4989880843DD498880D42001F006FC72
:1016E00000F0BCFFD949888000F0B8FFD749888056
:1016F00000F0B4FFD5498880084680884FF6FF7116
:1017000001EA0020D149888000F0A8FFCF498988EC
:101710000843CE49888008468188CDA002F010F9A0
:10172000CA48808845F21031884240F08987ED2010
:1017300001F0DCFB012001F0C7FBFE2001F0C4FB3F
:10174000EE2001F0D3FBDE2001F0BEFB212001F0F2
:10175000BBFBF12001F0CAFB012001F0B5FBDF204B
:1017600001F0C4FB102001F0AFFBC42001F0BEFB70
:101770008F2001F0A9FBC62001F0B8FB002001F08A
:10178000A3FBE22001F0A0FBE22001F09DFBE220A0
:1017900001F09AFBBF2001F0A9FBAA2001F094FB05
:1017A000B02001F0A3FB0D2001F08EFB002001F022
:1017B0008BFB0D2001F088FB002001F085FB112040
:1017C00001F082FB002001F07FFB192001F07CFB7F
:1017D000002001F079FB212001F076FB002001F0D0
:1017E00073FB2D2001F070FB002001F06DFB3D200C
:1017F00001F06AFB002001F067FB5D2001F064FB53
:10180000002001F061FB5D2001F05EFB002001F093
:101810005BFBB12001F06AFB802001F055FB00204A
:1018200001F052FB8B2001F04FFB002001F04CFB3C
:10183000962001F049FB002001F046FBB22001F0A8
:1018400055FB002001F040FB002001F03DFB022091
:1018500001F03AFB002001F037FB032001F034FBDC
:10186000002001F031FBB32001F040FB002001F02B
:101870002BFB002001F028FB002001F025FB0020BD
:1018800001F022FB002001F01FFB002001F01CFBF7
:10189000002001F019FB002001F016FB002001F0F0
:1018A00013FB002001F010FB002001F00DFB0020D5
:1018B00001F00AFB002001F007FB002001F004FB0F
:1018C000002001F001FB002001F0FEFA002001F0F1
:1018D000FBFA002001F0F8FA002001F0F5FA0020F0
:1018E00001F0F2FA002001F0EFFA002001F0ECFA2A
:1018F000002001F0E9FA002001F0E6FAB42001F03E
:10190000F5FA8B2001F0E0FA002001F0DDFA9620D4
:1019100001F0DAFA002001F0D7FAA12001F0D4FAA0
:10192000002001F0D1FAB52001F0E0FA022001F028
:10193000CBFA002001F0C8FA032001F0C5FA00201C
:1019400001F0C2FA042001F0BFFA002001F0BCFA55
:10195000B62001F0CBFA002001F0B6FA002001F029
:10196000B3FAB72001F0C2FA002001F0ADFA00206E
:1019700001F0AAFA3F2001F0A7FA002001F0A4FA32
:101980005E2001F0A1FA002001F09EFA642001F02F
:101990009BFA002001F098FA8C2001F095FA0020C3
:1019A00001F092FAAC2001F08FFA002001F08CFADD
:1019B000DC2001F089FA002001F086FA702001F0A5
:1019C00083FA002001F080FA902001F07DFA0020D7
:1019D00001F07AFAEB2001F077FA002001F074FAB6
:1019E000DC2001F071FA002001F06EFAB82001F05D
:1019F0007DFA002001F068FA002001F065FA00206D
:101A000001F062FA002001F05FFA002001F05CFAB8
:101A1000002001F059FA002001F056FA002001F0F0
:101A200053FABA2001F062FA242001F04DFA0020A6
:101A300001F04AFA002001F047FA002010E000000F
:101A40000002300000100140000C01404C05002055
:101A5000204C43442049443A25780D0A00000000F8
:101A600001F032FAC12001F041FA202001F02CFAF5
:101A7000002001F029FA542001F026FA002001F09C
:101A800023FAFF2001F020FA002001F01DFAC22005
:101A900001F02CFA0A2001F017FA002001F014FAE4
:101AA000042001F011FA002001F00EFAC32001F029
:101AB0001DFA3C2001F008FA002001F005FA3A2056
:101AC00001F002FA002001F0FFF9392001F0FCF9E1
:101AD000002001F0F9F9372001F0F6F9002001F0BB
:101AE000F3F93C2001F0F0F9002001F0EDF9362087
:101AF00001F0EAF9002001F0E7F9322001F0E4F901
:101B0000002001F0E1F92F2001F0DEF9002001F0C2
:101B1000DBF92C2001F0D8F9002001F0D5F92920BB
:101B200001F0D2F9002001F0CFF9262001F0CCF924
:101B3000002001F0C9F9242001F0C6F9002001F0CD
:101B4000C3F9242001F0C0F9002001F0BDF92320E1
:101B500001F0BAF9002001F0B7F93C2001F0B4F926
:101B6000002001F0B1F9362001F0AEF9002001F0BB
:101B7000ABF9322001F0A8F9002001F0A5F92F20DF
:101B800001F0A2F9002001F09FF92C2001F09CF94E
:101B9000002001F099F9292001F096F9002001F0C8
:101BA00093F9262001F090F9002001F08DF924200E
:101BB00001F08AF9002001F087F9242001F084F96E
:101BC000002001F081F9232001F07EF9002001F0CE
:101BD0007BF9C42001F08AF9622001F075F9002038
:101BE00001F072F9052001F06FF9002001F06CF9A5
:101BF000842001F069F9002001F066F9F02001F07D
:101C000063F9002001F060F9182001F05DF900206F
:101C100001F05AF9A42001F057F9002001F054F91D
:101C2000182001F051F9002001F04EF9502001F088
:101C30004BF9002001F048F90C2001F045F9002093
:101C400001F042F9172001F03FF9002001F03CF9C2
:101C5000952001F039F9002001F036F9F32001F068
:101C600033F9002001F030F9E62001F02DF90020D1
:101C700001F02AF9C52001F039F9322001F024F9E8
:101C8000002001F021F9442001F01EF9002001F0AC
:101C90001BF9652001F018F9002001F015F97620F4
:101CA00001F012F9002001F00FF9882001F00CF981
:101CB000002001F009F9C62001F018F9202001F0F8
:101CC00003F9002001F000F9172001F0FDF80020D1
:101CD00001F0FAF8012001F0F7F8002001F0F4F823
:101CE000C72001F003F9002001F0EEF8002001F018
:101CF000EBF8002001F0E8F8002001F0E5F8C8203A
:101D000001F0F4F8002001F0DFF8002001F0DCF829
:101D1000002001F0D9F8002001F0D6F8C92001F028
:101D2000E5F8002001F0D0F8002001F0CDF8002007
:101D300001F0CAF8002001F0C7F8002001F0C4F853
:101D4000002001F0C1F8002001F0BEF8002001F0F1
:101D5000BBF8002001F0B8F8002001F0B5F8002031
:101D600001F0B2F8002001F0AFF8002001F0ACF86B
:101D7000002001F0A9F8002001F0A6F8002001F0F1
:101D8000A3F8E02001F0B2F8162001F09DF8002041
:101D900001F09AF81C2001F097F8002001F094F867
:101DA000212001F091F8002001F08EF8362001F09A
:101DB0008BF8002001F088F8462001F085F800201B
:101DC00001F082F8522001F07FF8002001F07CF849
:101DD000642001F079F8002001F076F87A2001F013
:101DE00073F8002001F070F88B2001F06DF80020EE
:101DF00001F06AF8992001F067F8002001F064F81A
:101E0000A82001F061F8002001F05EF8B92001F08F
:101E10005BF8002001F058F8C42001F055F80020CC
:101E200001F052F8CA2001F04FF8002001F04CF800
:101E3000D22001F049F8002001F046F8D92001F045
:101E400043F8002001F040F8E02001F03DF80020C8
:101E500001F03AF8F32001F037F8002001F034F8EF
:101E6000E12001F043F8162001F02EF8002001F0E7
:101E70002BF81C2001F028F8002001F025F8222082
:101E800001F022F8002001F01FF8362001F01CF8C4
:101E9000002001F019F8452001F016F8002001F0AB
:101EA00013F8522001F010F8002001F00DF8642022
:101EB00001F00AF8002001F007F87A2001F004F898
:101EC000002001F001F88B2000F0FEFF002000F060
:101ED000FBFF992000F0F8FF002000F0F5FFA8209C
:101EE00000F0F2FF002000F0EFFFB92000F0ECFF5F
:101EF000002000F0E9FFC42000F0E6FF002000F021
:101F0000E3FFCA2000F0E0FF002000F0DDFFD22058
:101F100000F0DAFF002000F0D7FFD82000F0D4FF57
:101F2000002000F0D1FFE02000F0CEFF002000F004
:101F3000CBFFF32000F0C8FF002000F0C5FFE22037
:101F400000F0D4FF052000F0BFFF002000F0BCFF30
:101F50000B2000F0B9FF002000F0B6FF1B2000F0BE
:101F6000B3FF002000F0B0FF342000F0ADFF0020F0
:101F700000F0AAFF442000F0A7FF002000F0A4FF1B
:101F80004F2000F0A1FF002000F09EFF612000F034
:101F90009BFF002000F098FF792000F095FF0020C3
:101FA00000F092FF882000F08FFF002000F08CFFEF
:101FB000972000F089FF002000F086FFA62000F0A7
:101FC00083FF002000F080FFB72000F07DFF00209D
:101FD00000F07AFFC22000F077FF002000F074FFCD
:101FE000C72000F071FF002000F06EFFD12000F04C
:101FF0006BFF002000F068FFD62000F065FF002096
:1020000000F062FFDD2000F05FFF002000F05CFFC9
:10201000F32000F059FF002000F056FFE32000F00D
:1020200065FF052000F050FF002000F04DFF0A2062
:1020300000F04AFF002000F047FF1C2000F044FFA2
:10204000002000F041FF332000F03EFF002000F0B0
:102050003BFF442000F038FF002000F035FF502007
:1020600000F032FF002000F02FFF622000F02CFF74
:10207000002000F029FF782000F026FF002000F06B
:1020800023FF882000F020FF002000F01DFF972094
:1020900000F01AFF002000F017FFA62000F014FF48
:1020A000002000F011FFB72000F00EFF002000F02C
:1020B0000BFFC22000F008FF002000F005FFC72042
:1020C00000F002FF002000F0FFFED12000F0FCFE37
:1020D000002000F0F9FED52000F0F6FE002000F010
:1020E000F3FEDD2000F0F0FE002000F0EDFEF32016
:1020F00000F0EAFE002000F0E7FEE42000F0F6FE2B
:10210000012000F0E1FE002000F0DEFE012000F0E2
:10211000DBFE002000F0D8FE022000F0D5FE0020FB
:1021200000F0D2FE2A2000F0CFFE002000F0CCFE0E
:102130003C2000F0C9FE002000F0C6FE4B2000F05D
:10214000C3FE002000F0C0FE5D2000F0BDFE0020B8
:1021500000F0BAFE742000F0B7FE002000F0B4FEDC
:10216000842000F0B1FE002000F0AEFE932000F0CD
:10217000ABFE002000F0A8FEA22000F0A5FE00208B
:1021800000F0A2FEB32000F09FFE002000F09CFEB5
:10219000BE2000F099FE002000F096FEC42000F062
:1021A00093FE002000F090FECD2000F08DFE002078
:1021B00000F08AFED32000F087FE002000F084FEAD
:1021C000DD2000F081FE002000F07EFEF32000F014
:1021D0007BFE002000F078FEE52000F087FE002066
:1021E00000F072FE002000F06FFE002000F06CFE98
:1021F000002000F069FE022000F066FE002000F0E2
:1022000063FE292000F060FE002000F05DFE3C200F
:1022100000F05AFE002000F057FE4B2000F054FE64
:10222000002000F051FE5D2000F04EFE002000F086
:102230004BFE742000F048FE002000F045FE842094
:1022400000F042FE002000F03FFE932000F03CFE34
:10225000002000F039FEA22000F036FE002000F041
:1022600033FEB32000F030FE002000F02DFEBE2033
:1022700000F02AFE002000F027FEC42000F024FE1B
:10228000002000F021FECD2000F01EFE002000F016
:102290001BFED32000F018FE002000F015FEDC200D
:1022A00000F012FE002000F00FFEF32000F00CFE04
:1022B000002000F009FEE62000F018FE112000F0DA
:1022C00003FE002000F000FE342000F0FDFD0020A1
:1022D00000F0FAFD562000F0F7FD002000F0F4FDBC
:1022E000762000F0F1FD002000F0EEFD772000F0F8
:1022F000EBFD002000F0E8FD662000F0E5FD002089
:1023000000F0E2FD882000F0DFFD002000F0DCFDA1
:10231000992000F0D9FD002000F0D6FDBB2000F090
:10232000D3FD002000F0D0FD992000F0CDFD00206D
:1023300000F0CAFD662000F0C7FD002000F0C4FDDB
:10234000552000F0C1FD002000F0BEFD552000F03A
:10235000BBFD002000F0B8FD452000F0B5FD0020D9
:1023600000F0B2FD432000F0AFFD002000F0ACFD16
:10237000442000F0A9FD002000F0A6FDE72000F0B9
:10238000B5FD322000F0A0FD002000F09DFD55209D
:1023900000F09AFD002000F097FD762000F094FDFB
:1023A000002000F091FD662000F08EFD002000F07E
:1023B0008BFD672000F088FD002000F085FD672080
:1023C00000F082FD002000F07FFD872000F07CFD02
:1023D000002000F079FD992000F076FD002000F04B
:1023E00073FDBB2000F070FD002000F06DFD992012
:1023F00000F06AFD002000F067FD772000F064FD2A
:10240000002000F061FD442000F05EFD002000F09F
:102410005BFD562000F058FD002000F055FD232004
:1024200000F052FD002000F04FFD332000F04CFD85
:10243000002000F049FD452000F046FD002000F09E
:1024400043FDE82000F052FD002000F03DFD00209B
:1024500000F03AFD992000F037FD002000F034FD37
:10246000872000F031FD002000F02EFD882000F0D4
:102470002BFD002000F028FD772000F025FD002036
:1024800000F022FD662000F01FFD002000F01CFD82
:10249000882000F019FD002000F016FDAA2000F0B1
:1024A00013FD002000F010FDBB2000F00DFD00200A
:1024B00000F00AFD992000F007FD002000F004FD67
:1024C000662000F001FD002000F0FEFC552000F029
:1024D000FBFC002000F0F8FC552000F0F5FC00208B
:1024E00000F0F2FC442000F0EFFC002000F0ECFCD7
:1024F000442000F0E9FC002000F0E6FC552000F04C
:10250000E3FC002000F0E0FCE92000F0EFFCAA2052
:1025100000F0DAFC002000F0D7FC002000F0D4FC32
:10252000002000F0D1FC002000F0E0FCAA2000F028
:10253000CBFCCF2000F0DAFC002000F0C5FC00202E
:1025400000F0C2FC002000F0BFFC002000F0BCFC4A
:10255000002000F0B9FC002000F0B6FC002000F0E4
:10256000B3FC002000F0B0FC002000F0ADFC002027
:1025700000F0AAFC002000F0A7FC002000F0A4FC62
:10258000002000F0A1FC002000F09EFC002000F0E4
:102590009BFC002000F098FC002000F095FCF0204F
:1025A00000F0A4FC002000F08FFC502000F08CFC18
:1025B000002000F089FC002000F086FC002000F0E4
:1025C00083FCF32000F092FC002000F07DFCF92059
:1025D00000F08CFC062000F077FC102000F074FC6A
:1025E000292000F071FC002000F06EFC3A2000F081
:1025F0007DFC552000F068FC112000F077FC642081
:1026000003F0B6F8292000F071FC352000F06EFCD4
:10261000002000F059FC512000F068FCFF2000F081
:1026200053FC532000F062FC2C2000F04DFC5520A0
:1026300000F05CFC822000F047FC2C2000F056FCEF
:102640000020FEF723FD0120034908604FF6FF70CC
:10265000FEF7B8FC08BD0000A801224200B54FF00B
:10266000883014490860091D0860002011490C31A8
:1026700008608815104908614000486140204861A1
:1026800002201DF0B5F90B480830006883B24020E5
:1026900009490861C00008614FF0333005490860FE
:1026A000091D08604FF6FF7002490C31086018469A
:1026B00000BD0000000C014000100140F0B50546CF
:1026C00000240027E2488079012805D1E04880886D
:1026D00041F66311884208D1DD488079F0B9DC48C1
:1026E000808841F66311884218D1082D15D2DFE8A1
:1026F00005F00406080A0C0E101206250DE0072549
:102700000BE0042509E0052507E0012505E000258B
:1027100003E0032501E0022500BF00BF082D1CD205
:10272000DFE805F00406090C0F12151800BF14E0CD
:1027300044F0800411E044F040040EE044F0C00492
:102740000BE044F0200408E044F0600405E044F0AD
:10275000A00402E044F0E00400BF00BFBC48808851
:1027600045F21051884202D14FF4585700E0362705
:10277000B748808849F24131884205D0B448808802
:1027800047F28971884201D144F008042146384655
:1027900000F0C6FBAE48808841F6631188421DD028
:1027A00004F0200068B1AA480088A94949888842F5
:1027B00014DAA74806884088A5490880084646805C
:1027C0000CE0A3480088A2494988884206DDA04859
:1027D000068840889E490880084646809C48808834
:1027E00045F2105188427DD19949488900F07EFB1D
:1027F0004FF4807097490861400048610020964975
:102800000860802093494861086180000861904910
:102810004989491C88B200F069FB4FF480708D49EA
:1028200008614000486100208B4908608020894988
:10283000486108618000086185494989891C88B21E
:1028400000F054FB4FF480708249086140004861F9
:102850007F480088401E00127F49086080207D4923
:10286000486108618000086179494989C91C88B2BA
:1028700000F03CFB4FF480707649086140004861ED
:1028800073480078401EC0B27349086080207149C7
:1028900048610861800008616D49888900F026FB65
:1028A0004FF480706B4908614000486100206A491C
:1028B00008608020674948610861800008616449B8
:1028C0008989491C88B200F011FB4FF4807061497E
:1028D00008614000486100205F49086080205D4930
:1028E000486100E033E00861800008615849898947
:1028F000891C88B200F0FAFA4FF4807055490861DB
:102900004000486152484088401E00125249086009
:102910008020504948610861800008614C498989DC
:10292000C91C88B200F0E2FA4FF48070494908618E
:102930004000486146488078401EC0B24649086061
:102940008020444948610861800008617FE0404977
:10295000488900F0CBFA4FF480703E49086140008E
:10296000486100203C49086080203A49486108617C
:10297000800008614010086140004861002036492D
:102980000860802033494861086180000861401078
:102990000861400048612E480088401E00122E4900
:1029A000086080202B494861086180000861401060
:1029B00008614000486126480078401EC0B22649A0
:1029C000086080202349486108618000086120492F
:1029D000888900F08BFA4FF480701E49086140002E
:1029E000486100201C49086080201A49486108613C
:1029F00080000861401008614000486100201649CD
:102A00000860802013494861086180000861401017
:102A10000861400048610E484088401E00120E497F
:102A2000086080200B4948610861800008614010FF
:102A300008614000486106488078401EC0B20649DF
:102A40000860802003494861086180000861F0BD8A
:102A50004C050020001001400C0C014010B503464D
:102A60000C46B248808841F6631188427ED1AF4857
:102A7000807900283FD1AD480088401EC01A83B23B
:102A8000AA49488900F032FA4FF48070A8490861D9
:102A9000400048610020A74908608020A44948619F
:102AA0000861800008614010086140004861002012
:102AB000A049086080209E49486108618000086143
:102AC000401008614000486118129A49086080204F
:102AD0009749486108618000086140100861400022
:102AE0004861D8B2934908608020914948610861E3
:102AF0008000086141E08D49488900F0F7F94FF402
:102B000080708B490861400048611812894908604B
:102B10008020874948610861800008614010086191
:102B200040004861D8B283490860802080494861EC
:102B300008618000086140100861400048617B48DE
:102B40000088401E00127B49086080207849486157
:102B500008618000086140100861400048617348C6
:102B60000078401EC0B27349086000E046E0802053
:102B70006F4948610861800008616C49888900F0EC
:102B8000B5F94FF480706A4908614000486120122D
:102B900068490860802066494861086180000861D2
:102BA0004010086140004861E0B26249086080203E
:102BB0005F49486108618000086140100861400079
:102BC00048615A484088401E00125A4908608020D7
:102BD0005749486108618000086140100861400061
:102BE000486152488078401EC0B252490860802037
:102BF0004F49486108618000086196E04B48808831
:102C000045F21051884250D14849488900F06EF988
:102C10004FF48070464908614000486118124549E8
:102C200008608020424948610861800008613F498E
:102C30004989491C88B200F059F94FF480703C4929
:102C4000086140004861D8B23A490860802038499C
:102C500048610861800008613449888900F046F9BC
:102C60004FF48070324908614000486120123149B8
:102C7000086080202E4948610861800008612B4966
:102C80008989491C88B200F031F94FF480702849D5
:102C9000086140004861E0B226490860802024496C
:102CA00048610861800008613FE02049488900F0E0
:102CB0001DF94FF480701E490861400048611812E8
:102CC0001C49086080201A49486108618000086139
:102CD0004010086140004861D8B216490860802061
:102CE000134948610861800008611049888900F033
:102CF000FDF84FF480700E490861400048612012D1
:102D00000C49086080200A49486108618000086118
:102D10004010086140004861E0B206490860802028
:102D20000349486108618000086110BD4C0500201E
:102D3000001001400C0C01402DE9F84F80460E4672
:102D400017461C46B3462046E31704EB5373DB10CB
:102D500021464FEAE47C04EB5C7C4FEAEC0CA4EBEC
:102D6000CC0CBCF1000F02D04FF0010C01E04FF091
:102D7000000C6344224604EBD27C4FEA6C0C03FB4C
:102D80000CF3DBB20093A7F12000C7B2002556E098
:102D90000C2C07D107EB47002B4901EB800010F802
:102DA000059013E0102C05D1284800EB071010F80F
:102DB00005900BE0182C07D107EBC700244901EB65
:102DC000800010F8059001E0BDE8F88F4FF0000A90
:102DD0002FE009F0800030B11E480288314640469D
:102DE000FEF7B0FA07E00A9828B91B480288314676
:102DF0004046FEF7A7FA4FEA49604FEA1069701C97
:102E000086B216484088B04200DCDDE7A6EB0B0036
:102E1000A0420AD15E4608F101001FFA80F80F486F
:102E20000088404500DCCFE706E00AF1010000F031
:102E3000FF0ABAF1080FCCDB00BF681CC5B20098CE
:102E40008542A5DB00BFBFE79C2A0208102F0208BD
:102E50000035020824000020260000204C05002038
:102E60002DE9F84704460D4690469946DDE9096785
:102E700004F0FF0A08EB04001FFA80F809EB0500D4
:102E80001FFA80F916E0444502DB5446A81985B2C2
:102E90004D4500DB14E0002000903A783346294687
:102EA0002046FFF749FF304606EBD07104EB610185
:102EB0008CB27F1C38787E2802DC38782028E2DA51
:102EC00000BFBDE8F88700004FF48071054A11612A
:102ED00049005161044908608021516111618900F4
:102EE00011617047001001400C0C01404FF48071DB
:102EF000054A5161490051610449086080215161CE
:102F00001161890011617047001001400C0C0140F3
:102F100000B502490889FFF7E9FF00BD4C05002014
:102F200010B504460B462046FFF7E0FF4FF48070D3
:102F300005490861400048610448036080204861F9
:102F400008618000086110BD001001400C0C0140B8
:102F500008B50121042000F08FF84FF4C050ADF8FF
:102F6000000010208DF8030003208DF80200694650
:102F70000448FDF7E9FD4FF4C0510248FDF7C3FED8
:102F800008BD00000008014008B50121042000F040
:102F900073F810208DF803006020ADF800000320C6
:102FA0008DF8020069460748FDF7CEFD202105484F
:102FB000FDF7A7FE40210348FDF7A3FE00F042FB0A
:102FC00008BD00000008014000BFFEE77047000098
:102FD00070B5002100230F22C47804B3154C246877
:102FE00004F4E064C4F5E064210AC1F10403CA40BA
:102FF000447804FA03F184781440214309010E4C0B
:103000000678A155047804F01F050124AC4005782A
:103010006D11AD0005F1E025C5F8004109E0047827
:1030200004F01F050124AC40044D0678761145F8E4
:10303000264070BD0CED00E000E400E080E100E01F
:1030400002490143024A1160704700000000FA057E
:103050000CED00E07047000029B1064AD269024336
:10306000044BDA6104E0034AD2698243014BDA611E
:10307000704700000010024029B1064A92690243DD
:10308000044B9A6104E0034A92698243014B9A61BE
:10309000704700000010024030B5002100220024DB
:1030A00000232D4D6D6805F00C0121B1042905D0D8
:1030B000082923D105E0294D056022E0274D056050
:1030C0001FE0254D6D6805F47012234D6D6805F401
:1030D0008034022505EB92421CB9214D5543056011
:1030E0000BE01D4D6D6805F400351DB11C4D5543B9
:1030F000056002E0194D5543056002E0174D05607B
:1031000000BF00BF144D6D6805F0F0010909154DB1
:103110006B5C0568DD4045600F4D6D6805F4E0614E
:10312000090A104D6B5C4568DD4085600A4D6D688D
:1031300005F46051C90A0B4D6B5C4568DD40C56004
:10314000054D6D6805F44041890B074D6B5CC56802
:10315000B5FBF3F5056130BD0010024000127A00A6
:1031600000093D007E0000208E00002038B5044696
:1031700001210520FFF780FF01214804FFF76CFFC4
:1031800018208DF803000420ADF8000003208DF80E
:10319000020069460A48FDF7D7FC04208DF80300B9
:1031A0000820ADF8000069460548FDF7CDFC214632
:1031B000044800F04DFB0121024800F0E0FA38BD60
:1031C00000080140004400407047000010B504466C
:1031D0000BE014F8011B074800F0ABFB00BF802197
:1031E000044800F0D8FA0028F9D020780028F0D15F
:1031F00010BD00000044004010B500F001F810BD03
:103200000CB50020019000903348006840F48030F5
:103210003149086000BF3048006800F40030009079
:103220000198401C0190009818B90198B0F5A06F62
:10323000F1D12948006800F4003010B1012000905D
:1032400001E0002000900098012843D12348006845
:1032500040F01000214908600846006820F0030093
:1032600008600846006840F0020008601A4840689C
:10327000194948600846406848600846406840F47C
:10328000806048600846406820F47C10486008462A
:10329000406840F4E81048600846006840F08070DC
:1032A000086000BF0C48006800F000700028F9D0EA
:1032B0000948406820F00300074948600846406814
:1032C00040F00200486000BF0348406800F00C0076
:1032D0000828F9D10CBD0000001002400020024077
:1032E000042808D14FF0E021096941F004014FF0B2
:1032F000E022116107E04FF0E021096921F00401AB
:103300004FF0E022116170477047000010B513487C
:10331000006840F001001149086008464068104903
:1033200008400E494860084600680E4908400B49AD
:1033300008600846006820F480200860084640685D
:1033400020F4FE0048604FF41F008860FFF754FF30
:103350004FF000600449086010BD000000100240FA
:103360000000FFF8FFFFF6FE08ED00E010B50121B8
:10337000880700F0FAF8002866D00121880700F0DD
:10338000E5F832480078401C30490870084600785B
:1033900014280ED1002008702D480078401C2C49BC
:1033A00008702C48006808B9012000E00020294975
:1033B000086027480078142846D100202449087066
:1033C0002548007800283FD0002023490870234872
:1033D000FCF7F0FE032812D1204800783038642131
:1033E00048431E494978303901EB810100EB410126
:1033F0001A48807830380844194908801BE017487B
:10340000FCF7D8FE02280CD1144840783038134914
:103410000978303901EB810100EB41001049088047
:1034200009E00E48FCF7C6FE012804D10B480078DD
:1034300030380B4908800A4802880AA10B4800F07E
:103440008FFA0A48FFF7C2FE10BD00000D000020F1
:103450000E000020AC0121420000002001000020ED
:10346000060000206125336462000000080000208F
:103470007FB505460C4601210846FFF7EDFDADF886
:103480000850ADF804400020ADF80A00ADF8060081
:1034900001A94FF0804000F083F801221146900707
:1034A00000F074F81C208DF8000001208DF8010058
:1034B00002208DF8020001208DF803006846FFF716
:1034C00087FD0121880700F044F87FBD10B5012178
:1034D000054800F04AF830B10121034800F036F801
:1034E00001201BF04DFD10BD000400407FB50546D6
:1034F0000C4601210220FFF7AFFDADF80850ADF8F2
:1035000004400020ADF80A00ADF8060001A90E48FD
:1035100000F046F8012211460B4800F037F81D2054
:103520008DF8000000208DF8010003208DF80200C6
:1035300001208DF803006846FFF74AFD012102488B
:1035400000F007F87FBD000000040040CA4302827B
:10355000704721B1028842F00102028004E0028833
:103560004FF6FE731A400280704730B502460020C5
:1035700000230024158A05EA0103958905EA010460
:1035800013B10CB1012000E0002030BD1AB18389D5
:103590000B43838102E083898B4383817047000062
:1035A000002202881D4B98420ED01D4B98420BD032
:1035B000B0F1804F08D01B4B984205D01A4B98426F
:1035C00002D01A4B984204D14FF68F731A404B88A1
:1035D0001A43174B984207D0164B984204D04FF627
:1035E000FF431A40CB881A4302808B8883850B885F
:1035F00003850A4B98420BD0094B984208D00E4BDA
:10360000984205D00D4B984202D00D4B984201D103
:103610000B7A03860123838270470000002C01404F
:10362000003401400004004000080040000C00404D
:1036300000100040001400400040014000440140E0
:103640000048014000B585B04FF4165001900020AD
:10365000ADF80800ADF80A00ADF80C00ADF81000A8
:103660000C20ADF80E0001A8FFF780FD26208DF894
:10367000000000208DF801008DF8020001208DF877
:1036800003006846FFF7A4FC012240F225510248DE
:1036900000F0B8F805B000BD0044004010B540F29D
:1036A00025511D4800F084F810B31B4800F03CF988
:1036B000C4B21A48008800F40040C8B9174800880E
:1036C00000F4804060B10A2C03D000201349088028
:1036D00020E01248008840F400401049088019E0BA
:1036E0000D2C06D10D48008840F480400B4908801D
:1036F00010E00A480088C0F30D0009490C5407483F
:103700000088401C0549088008460088C72801DD5C
:103710000020088010BD0000003801407C0000201F
:103720005A05002010B540F225510A4800F040F833
:1037300070B140F22551074800F012F8054800F03A
:10374000F3F8054908700846017804A000F0F8F87D
:1037500010BD0000004400407100002025630000FF
:1037600010B50022002340F66A14A14200D100BF28
:103770000A1201249440A3B2DC43048010BD21B19D
:10378000828942F40052828104E082894DF6FF73FF
:103790001A408281704702460020B1F5007F00D1B7
:1037A00000BF13880B400BB1012000E000207047E0
:1037B00070B50246002400230025002040F66A165A
:1037C000B14200D100BFC1F3421501F01F03012631
:1037D00006FA03F3012D02D19689334006E0022D4B
:1037E00002D1168A334001E0968A33400C1201263A
:1037F00006FA04F41688344013B10CB1012000E03D
:10380000002070BDF0B503460024002600250020EE
:1038100040F66A17B94200D100BF1846C1F34214FE
:1038200001F01F06012707FA06F5012C01D10C3023
:1038300004E0022C01D1103000E014301AB1076806
:103840002F43076002E00768AF430760F0BD000048
:103850002DE9F04786B005460E460024A24600BF7B
:10386000A1460027B08900B100BF2F462C8A4CF634
:10387000FF700440F08804432C82AC894EF6F310AC
:103880000440B08831890843718908430443AC81FE
:10389000AC8A4FF6FF400440B0890443AC8201A8D3
:1038A000FFF7FAFB1F48874202D1DDF810A001E0C4
:1038B000DDF80CA0A88900F4004040B10AEBCA0072
:1038C00000EB0A1031684900B0FBF1F807E00AEBA1
:1038D000CA0000EB0A1031688900B0FBF1F86420DF
:1038E000B8FBF0F004012009642101FB1089A889CC
:1038F00000F4004040B1322000EBC900B0FBF1F011
:1039000000F00700044308E0322000EB09106421B6
:10391000B0FBF1F000F00F0004432C8106B0BDE8CD
:10392000F08700000038014001468888C0F3080095
:103930007047C1F308028280704700BFFEE70000B5
:103940000FB4054B10B503A9044A029800F0EEF835
:1039500010BC5DF814FB000025660008780000200C
:103960000FB4084B10B504A902AA039800F0DEF8C2
:10397000044602A9002000F05CFC204610BC5DF863
:1039800014FB00003342000802E008C8121F08C1FF
:10399000002AFAD170477047002001E001C1121FD0
:1039A000002AFBD1704700002DE9FF5F82B00021A3
:1039B000DDE90430020DDDF840B0034318D044F6D1
:1039C0001050A2F2FF3242431514119801281FD063
:1039D000A5EB0B00401C5FEA000A4FF000064E4FBB
:1039E000DFF83891B046504615D5CAF1000413E00F
:1039F000119801244AA3012801D16FEA0B01029812
:103A0000119AC0E90031C0E9024206B0BDE8F09F5A
:103A1000CBF10000DFE704460021404A491842EBA1
:103A20000450CDE9001012E0E00707D032463B46D3
:103A300040464946FCF7A4FC8046894632463B4650
:103A400010461946FCF79CFC06460F466410002CF5
:103A5000EAD1DDE90401DDE90023BAF1000F06DA5D
:103A6000FCF78EFC42464B46FCF78AFC05E0FCF76F
:103A7000F9FC42464B46FCF7F5FC04460E46002294
:103A8000284BFCF7C3FD03D84FF0FF30014607E099
:103A90000022254B20463146FCF7BBFEFCF760FFB9
:103AA000102409E0002C0ADB0A220023FCF7DCFDCD
:103AB000039B30321A55641E50EA0102F2D1641C95
:103AC000039AC4F111031444119A012A03D001226C
:103AD00008430DD10AE0084304D000204FF0110B39
:103AE000119072E7A3EB0B056D1E0DE05B4504DD45
:103AF0004FF0000205F1010504E003DA4FF0000287
:103B0000A5F10105002AECD002981199C0E9023113
:103B1000C0E9004579E70000000014400000F03FD4
:103B2000300000000000F0430000E03F2DE9FF4FAF
:103B300095B09A46884606460025EEE1252877D1BD
:103B400000242746F94A0121039400E0044316F8B3
:103B5000013F203B01FA03F01042F7D130782A28C8
:103B600011D06FF02F033078A0F13002092A16D857
:103B7000039A44F0020402EB820203EB4202104477
:103B8000761C0390EFE758F8042B0392002A03DA1F
:103B9000504244F40054039044F00204761C307800
:103BA0002E2816D116F8010F44F004042A280DD04F
:103BB0006FF02F023078A0F13003092B09D807EB02
:103BC000870302EB4303C718761CF3E758F8047B1E
:103BD000761C30786C280FD006DC4C2817D068286B
:103BE0000DD06A2814D104E0742810D07A280FD19F
:103BF0000DE044F400140AE044F4801401E044F4BD
:103C000040147278824202D104F58014761C761C2E
:103C1000307866280BD013DC582877D009DC0028D0
:103C200075D04528F6D04628F4D047281AD193E11C
:103C300018E0632835D0642879D0652812D18BE14B
:103C4000702873D008DC6728F1D069286FD06E28FF
:103C50000DD06F2806D1ACE073282CD0752874D015
:103C6000782853D05246179990476D1C54E1C4F3FD
:103C70000250022809D003280DD0D8F800100428DB
:103C80000DD00D6008F1040846E1D8F80010EA17DD
:103C9000C1E90052F6E7D8F800100D80F2E70D7088
:103CA000F0E718F8041B8DF8001000208DF80100D3
:103CB000EB46012003E058F804BB4FF0FF306107EA
:103CC0004FF0000102D40DE009F101018946B9422B
:103CD0000FDA8145F8DB1BF809100029F4D108E060
:103CE00009F1010189468142FADB1BF8091000291C
:103CF000F6D103985346A0EB090721463846179A98
:103D000000F080FA284400EB090507E044E008E1F0
:103D10000DE01BF8010B524617999047B9F10109C4
:103D2000F7D2534621463846179AF2E039E00A2185
:103D3000C4F302524FF0000B0091022A06D058F84B
:103D4000040BC117032A09D00AE023E008F1070099
:103D500020F00702F2E80201904605E000B2C11728
:103D6000042A01D140B2C117002906DA0A4600210F
:103D7000404261EB02012D2202E0220504D52B22F4
:103D80008DF80420012203E0E20701D02022F7E7AA
:103D9000914657E00A2100E010214FF0000B0091FE
:103DA0000BE010214FF0000B44F0040408270091B1
:103DB00003E008204FF0000B0090C4F30252022AE7
:103DC00005D058F8040B0021032A08D008E008F1B8
:103DD000070020F00702F2E80201904603E080B2FB
:103DE000042A00D1C0B24FF0000922072AD5327848
:103DF000702A07D0DDF800C08CF0100C5CEA0B0CC8
:103E000005D00EE040228DF80420012208E050EA9F
:103E1000010306D030238DF804308DF805200222EE
:103E20009146009B83F0080353EA0B030AD150EA42
:103E3000010201D1620705D530228DF804204FF030
:103E400001097F1E3278582A04D039A20C920CAA9C
:103E500002920BE03BA2F9E75B46009AFCF704FCF8
:103E60000C9B9B5C029A521E0292137050EA010254
:103E7000F2D1029804A9081A00F1200B600702D5BC
:103E800024F4803400E001275F4502DDA7EB0B003E
:103E900000E0002000EB0B01009003984944401A19
:103EA0000390E00306D453462146179A039800F086
:103EB000A9F90544002706E001A85246C05D1799FC
:103EC00090476D1C7F1C4F45F6DBE0030CD5534635
:103ED0002146179A039800F095F9054404E0302034
:103EE0005246179990476D1C0099481E0090002972
:103EF000F5DC08E00298029952460078491C0291CC
:103F0000179990476D1CBBF10001ABF1010BF1DC7F
:103F10005BE100F065F90544761C307800287FF4F9
:103F20000DAE19B02846BDE8F08F00000928010049
:103F3000303132333435363738396162636465661F
:103F400000000000303132333435363738394142E1
:103F50004344454600000000600700D4062708F1EE
:103F6000070020F00700F0E80223804603F0004C31
:103F70005FEA0C0001D097A009E0200501D596A0CA
:103F800005E0E00701D095A001E0AFF24C001390EE
:103F9000307823F0004365280CD006DC452809D092
:103FA00046281DD047287FD13BE0662818D06728D7
:103FB0007AD136E00021112F01DB112000E0781CBE
:103FC000CDE9000104A90CA8FFF7EEFCDDE90D0125
:103FD0000C9A4FF0000B07F10109109200914EE08E
:103FE0004FF000400097CDE9011004A90CA8FFF79D
:103FF000DBFCDDE90D020C9B0F994FF0000B9146A5
:104000001093009211B9791C00EB0109B7EB09007C
:1040100003D4C0F1FF3B07F10109A9EB07000190B0
:1040200042E0012F00DA01270021112F01DD1120CC
:1040300000E03846CDE9000104A90CA8FFF7B4FC64
:10404000DDE90D010C9A00914FF0000BB94610927A
:1040500021070FD4009A4A4503DA914601E0A9F1FD
:104060000109B9F1010F05DD109AA9F10101515CB7
:104070003029F4D0B84202DA10F1040F03DA01213A
:10408000CDE9011010E0002803DC8344A9EB000116
:1040900002E0411C494500DD8946A0EB0B00401CB5
:1040A00001904FF000400290200705D40198484548
:1040B00002DB4FF0FF30019000208DF84B0002989A
:1040C0000DF14B07B0F1004F25D002200C902B20B2
:1040D0000D90029800280CDA404202902D200D909D
:1040E00007E00A210298FCF7A9FA3031029007F89C
:1040F000011D0C99481E0C900029F2DC0298002842
:10410000EFD1791E0D980870307800F0200040F053
:10411000450007F8020D11A8C01BC01D029013989E
:10412000007800B1012000EB0901019801EBE0717A
:10413000029801440398401A401E0390E00306D4FD
:1041400053462146179A039800F05CF805441398EB
:10415000007818B15246179990476D1CE00323D59B
:1041600053462146179A039800F04CF805441BE08B
:10417000BBF1000F07DB0098584504DD1098179934
:1041800010F80B0001E01799302052469047019833
:104190000BF1010B401E05F10105019004D12E2009
:1041A0005246179990476D1CB9F10001A9F1010918
:1041B000DEDC05E017F8010B5246179990476D1C9D
:1041C0000299481E02900029F4DC53462146179AB2
:1041D00003989EE62D0000002B0000002000000048
:1041E0002DE9F041044600251E461746880404D4F4
:1041F00005E039462020B0476D1C641EF9D52846DD
:10420000BDE8F0812DE9F041044600251E469046A8
:10421000C80301D5302700E02027880404D505E035
:1042200041463846B0476D1C641EF9D52846BDE8A6
:10423000F0810A68531C0B60107070472DE9F04143
:1042400080460E460025002709E056F827001EA1EB
:10425000FBF7B7FF08B1681C85B2781C87B256F827
:104260002700FBF7A7FF0028EFD1404614F0FBFA28
:104270000446606820B1606813F020FC0020606094
:10428000A06820B1A06813F019FC0020A060E8002D
:1042900013F0EEFB6060606808B900BFFEE76800DD
:1042A00013F0E6FBA060A06808B900BFFEE76068F5
:1042B00008B1A06800B900256900A068FBF76FFF8E
:1042C0002584BDE8F08100000A00000010B58AB026
:1042D000044694F82000C0F3400020B994F8200070
:1042E00000F0010070B194F82000C0F34000F0B974
:1042F00094F8200000F00100C8B194F82000C0F349
:104300008000A0B12422214601A8FBF72FFF2146FF
:10431000194813F094F8204613F0D0FB01201749F8
:104320000870049810B101A8049988471FE0E08B39
:10433000404200B2608394F8200000F00100B0B168
:1043400094F82010C1F3800119B9A18B494209B238
:1043500061831034217C8908C943227C61F3820285
:1043600022742068616821606060103C00BF0348CF
:1043700000780AB010BD00006C0900201401002074
:104380002DE9F04107462F4812F072FF044608E07D
:10439000206A20F00800206221462A4812F06DFFB2
:1043A0000446002CF4D1284800681AF0CBFD0646DC
:1043B000244812F05DFF04463CE0002023490870C9
:1043C00094F82000C0F3C00038BB206A20F0080039
:1043D00008302062608B304400B26083B4F91A0068
:1043E00000281ADBB4F91A00218B884202DD208BE9
:1043F00000B260832046A16888470546606818B10E
:1044000029B2D4E900029047B4F91A00218B8842FE
:1044100002DB2046FFF75AFF00BF0C48007820B1AE
:10442000084812F025FF044604E02146054812F032
:1044300024FF0446002CC0D11AF092FD0249086006
:10444000BDE8F0816C09002010010020140100205B
:1044500030B50346022B04D10E48405C5043001295
:1044600030BD032B04D10C48405C50430012F7E7E9
:10447000042B04D10948405C50430012F0E7C1EB23
:10448000C105581EB5FBF0F0C4B20548005D5043AD
:10449000000AE5E7CA420208CC420208CF420208FD
:1044A000D342020808B51549154817F0CDFD08217B
:1044B0001348C186462250211248008808F03BFE6E
:1044C00000900F48BDF800108186012180F8391056
:1044D0000721818130220B210A48008808F02BFE39
:1044E00000900748BDF8001041810121418381837C
:1044F000C18201830449086708BD0000404B0020C9
:10450000B44F0020CC0400209049002070B506462E
:104510000C4644B910A1304611F09FFD01213046F0
:1045200011F068FD17E0072C01D0022C13D13046A2
:1045300014F0FCF90646304614F0F8F90646304609
:1045400014F08EF9054615B11D213046A8473046B6
:1045500014F02AF800BF70BD2334343434343420CE
:10456000EF8193204261636B0A23000008B5224962
:10457000224817F069FD0321204841838183C182CD
:10458000018347F61841C1801D491E4817F05CFDA4
:10459000462250211C48008808F0CDFD00901948A3
:1045A000BDF800104180462250211748008808F0CD
:1045B000C2FD00901348BDF8001081800F22142125
:1045C0001148008808F0B7FD00900E48BDF80010B3
:1045D000418101218181FF21C17347F61841C180CA
:1045E000002141838183C1820183044807494865D2
:1045F00004490648816508BD304C0020884E0020E3
:10460000404B0020C44E0020CC04002090490020E4
:1046100008B55949594817F017FD594801685748D6
:1046200041625849584817F00FFD1E220B21574888
:10463000008808F080FD00905348BDF800104180CC
:104640001E220B215148008808F075FD00904E484D
:10465000BDF8001081805F2205214C48008808F0D9
:104660006AFD00904848BDF8001001844448016884
:10467000454841625F2205214448008808F05BFDFF
:1046800000904148BDF8001001860146404817F0EF
:10469000DBFC00213E480183C1824183818337498D
:1046A0003C4817F0D1FC3C221E213848008808F015
:1046B00042FD00903748BDF8001041803C221E2189
:1046C0003248008808F037FD00903248BDF80010ED
:1046D0008180002181810321C18300214183818365
:1046E000C18201830221C180FF21017226492A482B
:1046F00017F0AAFC12220B212448008808F01BFDA9
:1047000000902548BDF80010418012220B211F485F
:10471000008808F010FD00901F48BDF8001081804F
:104720000321C18019220A211848008808F003FDDE
:1047300000901948BDF80010418101218181FF21BD
:10474000C173062141838183C18201832822142100
:104750000E48008808F0EFFC00900F48BDF80010EC
:1047600081860121C1860A480C49086006484860D4
:104770000248886008BD00008C070020404B0020E4
:10478000D004002014070020B84B0020CC040020E7
:104790007C4B0020F44B0020304C0020904900203E
:1047A00008B57E497E4817F04FFC28220A217D4833
:1047B000008808F0C0FC00907948BDF800104180E6
:1047C00014220A217748008808F0B5FC009074484C
:1047D000BDF80010818040F2111008F07EFC0090BE
:1047E0006F48BDF80010418101218181B221C17360
:1047F0000F21418381830721C1820183002101753B
:1048000040F2111008F069FC00906548BDF80010F6
:1048100001820221418240F6EE6008F05EFC0090C9
:104820005F48BDF80010018440F6EE6008F055FCCA
:1048300000905B48BDF80010018601465A4817F009
:1048400003FC1E220A215748008808F074FC0090DF
:104850005548BDF8001041800A2211465148008891
:1048600008F069FC00905048BDF8001081804C4968
:104870004E4817F0E9FB14220A214A48008808F044
:104880005AFC00904948BDF80010418028220A21B6
:104890004448008808F04FFC00904448BDF80010E0
:1048A00081800121418240F6DD5008F016FC009025
:1048B0003E48BDF80010018440F6DD5008F00DFCC4
:1048C00000903A48BDF8001001863549384817F085
:1048D000BBFB0A2211463348008808F02CFC0090EC
:1048E0003348BDF8001041801E220A212D4800885F
:1048F00008F021FC00902E48BDF8001081800221B4
:10490000418240F6DD5008F0E8FB00902848BDF8F1
:104910000010018440F6DD5008F0DFFB00902448D1
:10492000BDF8001001861E49224817F08DFB1422A5
:104930000A211C48008808F0FEFB00901D48BDF8C5
:104940000010418014220A211648008808F0F3FB69
:1049500000901848BDF8001081800021418240F687
:10496000AA2008F0BAFB00901248BDF8001001849C
:1049700040F6AA2008F0B1FB00900E48BDF80010E8
:10498000018607480C49086107490B4841610749FE
:1049900081610749C1610749016208BD404B0020A0
:1049A000204D0020CC0400205C4D0020984D0020BC
:1049B000D44D0020104E00209049002010B53A48F8
:1049C00001693A4817F040FB02213848418381834E
:1049D000C18201830021C1830121818132480169A3
:1049E000334817F031FB1F21314881730121818148
:1049F0000221C1802C4841692E4817F025FB2C4824
:104A0000817B2C4881732A4881892A4881812848E2
:104A1000C1882848C18024488169274817F014FBC1
:104A20002348817B244881732148818922488181E0
:104A30001F48C1882048C1801B4841691F4817F0A2
:104A400003FB1B48817B1D488173194881891B48E2
:104A500081811748C1881948C1801348016A1848E4
:104A600017F0F2FA1248817B15488173104881894A
:104A7000134881810E48C1881148C1800B480A49FA
:104A8000C1F8C4000A490848C0F8C8100949C0F86C
:104A9000CC100949C0F8D0100849C0F8D410084912
:104AA000C0F8D81010BD00009049002084520020AA
:104AB000C0520020FC5200203853002074530020C4
:104AC000B05300200146C1F3C01070470146C1F346
:104AD000002070470146C1F3C00070470146C1F392
:104AE000401070470146C1F3001070470146C1F302
:104AF000801070472DE9FF5F06460F4606F1100152
:104B000002A804F0DDFF0021304606F02AFF8046AF
:104B1000BDF80810B8F81A00084400B2ADF8080053
:104B2000BDF80C10B8F81C00081A00B2ADF80C0063
:104B3000304601F0B7FF718A4418304601F0ACFEF0
:104B40002118B8F81600081A00B2ADF80A00394664
:104B500002A805F0CAF800287ED0BDF90C00BDF906
:104B60000810401A401C072190FBF1F000B20190A0
:104B7000BDF90E00BDF90A10401A401C062190FB39
:104B8000F1F000B200904FF00009B7F90000BDF954
:104B90000810411A019891FBF0F000F0FF09B9F1FB
:104BA000060F01DD4FF006094FF0000AB7F90200C9
:104BB000BDF90A10411A009891FBF0F000F0FF0ACD
:104BC000BAF1050F01DD4FF0050A0025CAEBCA0056
:104BD0004844C5B2304613F046FE044694F9061028
:104BE000A088012201F06AFEA84224DDA188A079F4
:104BF000012800D100E00020081AE081A0790128F6
:104C000001D10C2002E094F90600401E41B221744B
:104C100094F91010E08901F0C3FF834694F906105F
:104C2000A088012201F04AFEABEB0000401C2844A2
:104C300041B2617446E094F90610A088012201F0A7
:104C40003DFE834694F90610A08801F0A9FF584460
:104C5000A84210DDA08800E038E0E081A17921744D
:104C600094F90610A088012201F028FE691C081A98
:104C700041B2617426E02A2D24DAA188A0790C289B
:104C800001D1012000E000200844E081A0790C2837
:104C900001D1012002E094F90600401C41B22174C8
:104CA00094F90610A088012201F008FE691CA1EB0E
:104CB000000B94F90610A08801F072FFABEB000026
:104CC00041B26174012004B0BDE8F09F0020FAE712
:104CD00008B56949694817F0B7F928220A216848D8
:104CE000008808F028FA00906448BDF80010418060
:104CF00028220A216248008808F01DFA00905F48C7
:104D0000BDF80010818040F2333008F0E6F90090E1
:104D10005A48BDF800104181012181810321C180E1
:104D2000062141838183C18201835349554817F08D
:104D30008BF914220A215248008808F0FCF90090EF
:104D40005048BDF80010418014220A214C480088C8
:104D500008F0F1F900904B48BDF800108180002167
:104D6000C1800121818140F2333008F0B6F9009012
:104D70004448BDF800104181062141838183C182EE
:104D800001834149414817F05FF92D221E213C481B
:104D9000008808F0D0F900903C48BDF80010418030
:104DA0002D221E213648008808F0C5F900903748AA
:104DB000BDF8001081800321C18001218181032180
:104DC000418381830221C18201830146304817F06B
:104DD0003BF9462250212A48008808F0ACF900909F
:104DE0002B48BDF8001041804622502124480088FD
:104DF00008F0A1F900902648BDF800108180032139
:104E0000C180042141838183C18201831A492148E1
:104E100017F01AF9502228211948008808F08BF958
:104E200000901C48BDF80010018413491A4817F07F
:104E30000BF93C2200211248008808F07CF9009010
:104E40001548BDF8001001840C481449C1F88C00C5
:104E50000C491248C0F890100C49C0F8A4100C4935
:104E6000C0F8A8100B49C0F89C100449C0F898106D
:104E70000949C0F8A01008BDB84B0020F04F002031
:104E8000CC0400202C500020304C00206850002022
:104E9000A4500020E05000201C5100209049002028
:104EA0002DE9FC41064644A1304601F0FDFB0746D2
:104EB0000021384606F018FC42490860DC22114601
:104EC0004048006813F0C4FF28200023022219463E
:104ED00000903C48006812F085FE3B493948006864
:104EE00013F0F8FE39480068019001A935480068C0
:104EF00006F0C4FD01A93348006806F084FD34497A
:104F00003048006806F057FD32492E48006806F028
:104F10006EFD012230492B48006806F058FD002143
:104F2000384615F007FF2D49086001222C492B480F
:104F3000006816F073F99DF90700401E81B2002247
:104F40002648006816F0BCF924488C2504682946D8
:104F5000204609F029FD00BF04212048006816F012
:104F6000D8F90F2000230D220090164801681B4835
:104F7000006812F037FE0021384609F0F9F8804643
:104F800018A1404609F059FD0021404609F0A2FD54
:104F90008C21404609F008FD0121404609F0E2FC61
:104FA0000F2000230D2200900C480168404612F0AB
:104FB00019FEBDE8FC81000043616C656E6461729E
:104FC00000000000D804002009610008FC710208FC
:104FD000AC710208C8710208F8710208DC040020F4
:104FE00048DC02085368616E676861690A42656956
:104FF0006A696E670A5368656E7A68656E0A0000B2
:105000002DE9F84F04463CA1204601F04DFB3C49F8
:1050100008600846006813F001FD85B23848006852
:1050200013F027FC1FFA80F800213548006817F0BC
:105030008DFE344908602846FBF78CFA82463249D7
:10504000FBF72EF90746FBF79BFA06B232223146F0
:105050002C48006813F0FCFE3C2000230222194675
:1050600000902848006812F0BDFD24A12548006882
:1050700018F060FD25A12348006818F094FC012178
:105080002048006818F00BFC23491E48006813F004
:1050900021FE00211A48006805F016FA1F49086031
:1050A0002846FBF757FA82461749FBF7F9F80746F7
:1050B000FBF766FA06B2282231461848006813F05A
:1050C000C7FE142000230D2200900E4801681348EB
:1050D000006812F087FD00211048006810F04AF8BF
:1050E00081460FA1484610F0B8FF0B490B480068F5
:1050F00013F0F0FDBDE8F88F43414C4C0000000078
:1051000044050020380500203333333F496E707565
:1051100074206E756D0000004D640008400500208D
:1051200063616C6C206E756D0000000008B5654908
:10513000654816F089FF03216348C1805F220A2178
:105140006248008807F0F7FF00905F48BDF8001044
:1051500041805F220A215D48008807F0ECFF009043
:105160005948BDF80010818032220A215748008832
:1051700007F0E1FF00905448BDF800104181022182
:1051800081810146524816F05FFF50220A214F48A4
:10519000008807F0D0FF00904D48BDF80010418016
:1051A00050220A214948008807F0C5FF009048486E
:1051B000BDF80010818014220A214448008807F0BD
:1051C000BAFF00904248BDF8001041810121818161
:1051D0003D49404816F038FF5A2250213B4800888C
:1051E00007F0A9FF00903B48BDF8001041805A220B
:1051F00050213648008807F09EFF00903548BDF8E2
:1052000000108180322250213048008807F093FF3F
:1052100000903048BDF80010418101462E4816F03C
:1052200013FF462250212948008807F084FF009090
:105230002948BDF8001041804622502123480088AB
:1052400007F079FF00902448BDF8001081801E22ED
:1052500050211E48008807F06EFF00901E48BDF8E0
:10526000001041810121818117491C4816F0ECFE94
:1052700040F2777007F031FF00901848BDF8001039
:10528000418040F2777007F028FF00901348BDF886
:10529000001081800021818111481249C1F8AC00C1
:1052A00009491048C0F8B0100949C0F8B4100949BC
:1052B000C0F8B8100849C0F8BC100249C0F8C010C6
:1052C00008BD0000404B002058510020CC040020B5
:1052D00094510020D05100200C5200204852002050
:1052E0006006002090490020F8B507460E46384673
:1052F00013F0B9FA0446E06B20B9B4F8400008B9DD
:105300000120F8BDB4F8400000280CDD384618F044
:105310005BF805460F4909688847B4F84010884291
:1053200001D30020EDE7E06B90B10020009009E090
:105330006946094AE06B126890470546B54201D1BB
:105340000120DEE7E06B0099405C0028F0D1D8E74F
:105350000120D6E75C0100204C01002002480349EF
:10536000C1F8880070470000304C002090490020B0
:105370007CB5044648A1204601F096F90546002177
:10538000284606F0E5FC48490860C822B421464892
:10539000006813F05DFD28201123022200210090F7
:1053A0004148006812F01EFC05213F48006807F0E4
:1053B000CAFDCC213C48006807F097FD03213A481C
:1053C000006807F0A5FDCC213748006807F07AFD9A
:1053D00007213548006807F0BDFC05220921324845
:1053E000006807F093FCC82200212F48006807F0EE
:1053F0004FFD032207212C48006807F0D5FD01234B
:1054000002222AA12848006807F0DBFD03220721B9
:105410002548006807F0A8FD012302222DA122489B
:10542000006807F0B0FD28211F48006807F086FCDF
:105430002C48006801901C480199006806F042FC65
:1054400029490860294A084601681748006807F09A
:1054500009FD0021284617F0ADF8254908602822EB
:1054600050212348006813F0F3FC4B206FF0100329
:105470000D2200900C4801681D48006812F0B2FB34
:1054800001211B48006817F038F91A4918480068CC
:1054900013F020FC7CBD000053616C657320566FD7
:1054A0006C756D6500000000F00400203230300A99
:1054B0003138300A3136300A3134300A3132300A6C
:1054C0003130300A38300A36300A34300A32300A85
:1054D00030000000310A320A330A340A350A360A2B
:1054E0003700000000720208F4040020E0040020ED
:1054F000FC040020596100082DE9F84F04462848B3
:10550000006808B1BDE8F88F0021204612F048F885
:1055100023490860204613F0ACF9054600EBD5702E
:105520004610204613F07AFA8246FBF70AF88146C5
:105530001C49FAF7B5FE8046FBF722F807B232465F
:1055400039461748006813F083FC17480068FAF7DB
:1055500031FE28B115A11248006812F061F904E08B
:105560001AA10F48006812F05BF920490C48006846
:1055700011F0AAFF01210A48006813F088FB0020FF
:1055800003460246014600900548006812F02AFBD7
:1055900017490348006813F09DFB00BFB2E7000005
:1055A000480500203333333F340500204865792017
:1055B0006D616E0A6D6573736167652073656E64F6
:1055C000207375636365737300000000576861742E
:1055D0002773207570206D616E3F0A796F752063A7
:1055E000616C6C206E6F7468696E670084D9020804
:1055F0004D64000801480249C8607047304C0020E3
:10560000904900202DE9FC4106460D46304613F036
:105610002AF904465820005DC0F30010A84240D08B
:105620000DB1012000E000205821095D60F3041154
:1056300058200155005D00F00F0090B35820005D28
:1056400000F0080068BB304613F0C4F8074604F1C8
:105650004E01684604F048FABDF80000216B098A43
:10566000084400B2ADF80000BDF80210206B408A7B
:10567000084400B2ADF80200BDF80400216B098AAD
:10568000084400B2ADF80400BDF80610206B408A53
:10569000084400B2ADF80600694638460FF01AFA21
:1056A00000BFBDE8FC81000008B51B4801691B482C
:1056B00016F0CAFC072119484185C1820183418344
:1056C00081830221C18014480169154816F0BCFC91
:1056D000322214211348008807F02DFD0090104855
:1056E000BDF800104180322214210E48008807F0D6
:1056F00022FD00900A48BDF8001081800021C18081
:1057000006480549C1F84C0105490348C0F8501145
:105710000549C0F8541108BD90490020905500205B
:10572000CC550020CC040020404B002010B56FF079
:105730000400FDF7D5FD0A4800680A49B0FBF1F006
:10574000094908700846007800EB4001C1EBC01021
:105750004FF6FF7101EAC0000449088010BD000047
:105760001000002000127A00720000207400002057
:105770000146114A12884A434FF0E0235A61002241
:105780009A611A46126942F001021A6100BF4FF095
:10579000E022106900F001021AB100F48032002A00
:1057A000F5D04FF0E022126922F001024FF0E02321
:1057B0001A6100229A617047740000200146114A64
:1057C00012784A434FF0E0235A6100229A611A4648
:1057D000126942F001021A6100BF4FF0E022106925
:1057E00000F001021AB100F48032002AF5D04FF027
:1057F000E022126922F001024FF0E0231A61002238
:105800009A617047720000202DE9F0470446201D80
:1058100011F02EFD0646204613F028F88046B8F118
:10582000000F02D020460DF0BDFE08E03146201DDD
:1058300011F023FD07463046FFF7E6FF3E46002EF7
:10584000F4D10022132120460DF0A4FC20460DF0D7
:1058500091FC0021204604F0B5F800200EF0EAFF8C
:1058600005461BE0686BA04202D0A86BA04202D1A3
:1058700028460FF0D5F8E86BA04201D10021E9637A
:10588000686D404506D10EF0E3FFA04202D12846E4
:105890000FF0C6F828460EF0CDFF0546002DE1D1E9
:1058A000204613F043F88146214609F1040011F027
:1058B000C6FD002211462046E3699847606A10B190
:1058C000606A12F0FBF8204612F0F8F8BDE8F087A5
:1058D000F8B506460C4615460095E788BBB2A78882
:1058E000BAB26788B9B22788B8B2FBF791FB3046E5
:1058F00009F0E2FAF8BD70472DE9F04393B0044691
:105900000F460021204615F0DEFB0546204612F02A
:10591000B0FF06460FA8216901606169416000BFC0
:10592000BDF83C00A18E401A00B2ADF83C00BDF8B5
:105930004000A18E084400B2ADF84000BDF83E0022
:10594000A18E401A00B2ADF83E00304606EBD07191
:105950004A10618A114409B2ADF842103A460FA9C3
:1059600011A804F047F98046BDF83C00A18E084418
:1059700000B2ADF83C00BDF84000A18E401A00B264
:10598000ADF84000BDF83E00A18E084400B2ADF86D
:105990003E00BDF84210E888084400B2ADF842006D
:1059A000B8F1000F09D0204612F0ACFF81464B46FB
:1059B0002A4611A90FA80AF0FEFCBDF83C00A18EF2
:1059C000401A00B2ADF83C00BDF84000A18E08447A
:1059D00000B2ADF84000E08AA18E084400B2ADF8F4
:1059E0004200304606EBD0714A10618A114409B278
:1059F000ADF83E1006F0010028B9BDF83E00401C8D
:105A000000B2ADF83E003A460FA911A804F0F2F832
:105A10008046BDF83C00A18E084400B2ADF83C00C1
:105A2000BDF84000A18E401A00B2ADF84000BDF8AC
:105A30004200A18E401A00B2ADF84200BDF83E10FF
:105A4000E888081A00B2ADF83E00B8F1000F15D092
:105A50003C2229466846FAF789FBA888ADF802007F
:105A60006988ADF80410204612F04CFF81464B4681
:105A70006A4611A90FA80AF09EFC00BF13B0BDE84A
:105A8000F0832DE9F04F89B006468846304612F083
:105A9000EAFE0446304612F035FF0890606AB0F91D
:105AA0001A90304612F0BAFF0146606A408B091A1C
:105AB000606A808B081A07B2072097FBF0F00FFA94
:105AC00080FA304600F0EEFF718A0144606AC08AB5
:105AD000084400B2ADF81A00616A486A0DF040FC53
