:020000040800F2
:10000000B00400200501000807140008831200084E
:1000100005140008710100084517000800000000E1
:100020000000000000000000000000000B140008A9
:100030007301000800000000091400080D140008F6
:100040001F0100081F0100081F0100081F01000810
:100050001F0100081F0100081F0100081F01000800
:100060001F0100081F0100081F0100081F010008F0
:100070001F0100081F0100081F0100081F010008E0
:100080001F0100081F0100081F0100081F010008D0
:100090001F0100081F0100081F0100081F010008C0
:1000A0001F0100081F0100081F0100081F010008B0
:1000B000711400081F0100081F0100081F0100083B
:1000C0001F0100081F0100081F0100081F01000890
:1000D0001F0100081F010008391700081F01000850
:1000E0001F0100081F0100081F010008DFF810D0E1
:1000F00000F02CF8004800476D190008AFF30080AD
:10010000B00400200648804706480047FEE7FEE7A7
:10011000FEE7FEE7FEE7FEE7FEE7FEE7FEE7FEE7B7
:100120006F140008ED000008D2B201E000F8012BC6
:10013000491EFBD270470022F6E710B513460A4667
:1001400004461946FFF7F0FF204610BD064C074D48
:1001500006E0E06840F0010394E807009847103497
:10016000AC42F6D3FFF7C6FF341A0008541A000851
:10017000FEE7704772B6FEE710B590F82110002236
:10018000022905D00421816380F82020012010BDC0
:1001900001680B6823F00E030B6001680B6823F005
:1001A00001030B6090F84030C46B012101FA03F3A6
:1001B000636080F8211080F82020104610BD0000F8
:1001C00010B590F821100024022903D00421816386
:1001D00001243DE001680A6822F00E020A6001680D
:1001E0000A6822F001020A601A4A0168914201D1AC
:1001F000012121E0174A1432914201D110211BE064
:10020000144A2832914201D1891515E0114A3C3235
:10021000914201D189140FE00E4A5032914202D12D
:100220004FF4803108E00B4A6432914202D14FF41E
:10023000801101E04FF08071064A083A51600121B7
:1002400080F82110002180F82010416B01B188470F
:10025000204610BD080002402DE9F84FDFF8B891A4
:10026000002409F1040A0AF1040B23460F270BF1BD
:10027000040EC9E00125A5402A40AA427DD1674E5F
:10028000D1F804C0ACEB0608B44532D014DCBCF1A4
:10029000030F3AD009DCBCF1000F2AD0BCF1010FEA
:1002A0001CD0BCF1020F31D11DE0BCF1110F17D0F1
:1002B000BCF1120F2AD119E0B8F5881F19D006DC5D
:1002C000B8F5803F15D0B8F5801F1FD111E0B8F503
:1002D000001F0ED0B8F5041F18D10AE0CB6815E056
:1002E000CB681B1D12E0CB6808330FE0CB680C33E2
:1002F0000CE08B682BB1012B4FF0080303D0456154
:1003000004E0042302E0056100E00023FF2A01D895
:10031000064601E000F104064FEA840501D9A5F183
:100320002005D6F8008007FA05FC28EA0C0803FA35
:1003300005F548EA0508C6F800804D68ED0062D56D
:10034000374DAE6946F00106AE61AD6924F0030693
:1003500005F001050095334D06EB050CDCF808505F
:10036000A607360F07FA06F825EA0805DFF8B88071
:10037000404503D14FF0000817E044E0DFF8AC80BF
:10038000404502D14FF001080FE0DFF8A48040455E
:1003900002D14FF0020808E0DFF89880404502D112
:1003A0004FF0030801E04FF0040808FA06F848EAA5
:1003B0000508CCF808804D68D9F80060ED034D467B
:1003C00001D5164300E096432E604D68DAF80060D0
:1003D000AD03554601D5164300E096432E604D68A7
:1003E000DBF80060ED025D4601D5164300E0964360
:1003F0002E604D68DEF80060AD02754601D51643EB
:1004000000E096432E60641C0D682A46E5407FF4A8
:1004100031AFBDE8F88F000000040140000011106A
:10042000001002400000014000080140000C0140A3
:1004300000100140001401400AB101617047090435
:10044000FBE70000014880687047000010000020B2
:1004500002488168027811448160704710000020D2
:10046000074810B5016841F010010160032000F059
:1004700075F80F2000F006F800F024F8002010BDF9
:100480000020024070B50D4D04464FF47A71287873
:10049000B1FBF0F00A490968B1FBF0F000F0ECFAAA
:1004A00048B9102C07D200222146501E00F036F821
:1004B00000206C6070BD012070BD000010000020A5
:1004C0001C0000200C4808B5816941F001018161E0
:1004D000816901F001010091C16941F08051C16160
:1004E000C06900F0805000900448416821F0E0614C
:1004F00041F08071416008BD0010024000000140E1
:10050000002809DB00F01F02012191404009800012
:1005100000F1E020C0F8001170470000F0B40E4B6D
:100520001B680C46C3F30223C3F10705042D00D951
:100530000425191D072901D2002300E0DB1E012636
:1005400006FA05F1491E214099409E40761E16404C
:100550003143F0BC01F0F7B80CED00E0064900F0C3
:10056000070208684FF6FF03184040EA0220034ADA
:1005700010430860704700000CED00E00000FA0531
:100580002DE9F0470F46050061D0434E306800F07A
:100590000700B84209D2306820F0070038433060C5
:1005A000306800F00700B84251D128683B4C810701
:1005B00012D5400703D5606840F4E0606060287899
:1005C000000703D5606840F4605060606068A96807
:1005D00020F0F000084360602878C00728D06868E1
:1005E000012810D02168022810D0890700292EDAAE
:1005F000616821F0030101436160FFF723FF80463A
:1006000041F288390DE021688903EFE78901EDE7C0
:10061000FFF718FFA0EB0801494502D90320BDE808
:10062000F0876068696800F00C00B0EB810FEFD1D3
:10063000306800F00700B8420BD9306820F007009E
:1006400038433060306800F00700B84201D0012024
:10065000E5E72878400705D56068E96820F4E060A0
:10066000084360602878000706D56068296920F48F
:10067000605040EAC100606000F038F86168084AE4
:10068000C1F30311515CC840064908600648006880
:10069000FFF7F8FE0020C2E70020024000100240F1
:1006A0001C1A00081C000020140000200448054902
:1006B00000684968044AC1F30221515CC840704790
:1006C0001C000020001002402C1A000804480549B4
:1006D00000684968044AC1F3C221515CC8407047B0
:1006E0001C000020001002402C1A000812A185B046
:1006F0000FC98DE80F0014A0144A006804905168D7
:10070000134801F00C03042B10D0082B0ED1C1F3B9
:100710008343C9031DF803000AD5516804AAC1F335
:100720004041515C0A4A5043B0FBF1F005B07047BC
:1007300008494843FAE700000203040506070809D0
:100740000A0B0C0D0E0F10100102000000100240E9
:1007500000127A0000093D002DE9F84F040070D026
:100760002078C04DC00749D06868C0F381000128D7
:1007700007D06868C0F38100022809D16868C00307
:1007800006D52868800339D560680028E7D035E0B1
:100790006068B0F5803F0BD010B1B0F5A02F11D03C
:1007A000286820F480302860286820F4802002E047
:1007B000286840F480302860606890B1FFF742FEFE
:1007C00006460AE0286840F480202860F0E700BF71
:1007D000FFF738FE801B642873D828688003F7D59C
:1007E0000CE0FFF72FFE064605E000BFFFF72AFEEC
:1007F000801B6428F0D828688003F7D420789A4EAC
:1008000080074FF001094FF0000839D5686810F0F3
:100810000C0F07D06868C0F38100022809D168680E
:10082000C00306D42868800714D52069012808D1A0
:1008300010E02069B0B1C6F80090FFF703FE07464C
:1008400005E00AE1FFF7FEFDC01B0228C4D82868B6
:100850008007F7D52868616920F0F80040EAC100F8
:1008600028600DE0C6F80080FFF7ECFD074604E0C5
:10087000FFF7E8FDC01B022823D828688007F7D4BB
:10088000207800072CD57948A169D9B1C0F800902B
:10089000FFF7D8FD074604E0FFF7D4FDC01B022890
:1008A0000FD8686A8007F7D571484FF4FA5100688D
:1008B000B0FBF1F0009000BF0098411E0091FAD209
:1008C0000EE080E0C0F80080FFF7BCFD074604E0C2
:1008D000FFF7B8FDC01B022875D8686A8007F7D4F7
:1008E0002078400760D5E8690027C00008D4E8698F
:1008F00040F08050E861E869012700F080500090E6
:100900005C480168C90513D40168834641F48071CD
:100910000160FFF797FD824606E000BFFFF792FDFA
:10092000A0EB0A0064284ED8DBF80000C005F5D51E
:10093000E06801280AD008B1052813D0286A20F001
:1009400001002862286A20F0040002E0286A40F0D2
:1009500001002862E06841F2883B98B1FFF772FD20
:1009600082460BE0286A40F004002862EEE700BFF0
:10097000FFF768FDA0EB0A0159455AD8286A80079D
:10098000F6D50CE0FFF75EFD824605E0FFF75AFD65
:10099000A0EB0A0159454CD8286A8007F6D41FB14C
:1009A000E86920F08050E861E06988B36968C1F3C4
:1009B0008101022944D00228C6F8608004D0FFF7E4
:1009C00041FD044638E034E0FFF73CFD074604E013
:1009D000FFF738FDC01B02282BD828688001F7D408
:1009E000206AB0F5803F05D16868A16820F4003026
:1009F00008436860D4E908010843696821F4741168
:100A000008436860C6F86090FFF71CFD044606E0E6
:100A100025E000BFFFF716FD001B022809D8286853
:100A20008001F7D51BE000BFFFF70CFD001B02287B
:100A300002D90320BDE8F88F28688001F4D40EE0C5
:100A40000128F7D06868226A00F48031914204D10D
:100A5000616A00F47010884201D00120EAE70020AA
:100A6000E8E70000001002400000424280044242D9
:100A70001C0000200070004010B5401EB0F1807FC7
:100A800001D3012010BD4FF0E02460610F216017F9
:100A900000F059FE0020A06107202061002010BD59
:100AA0007047704770B590F83C20012A26D0012489
:100AB00080F83C40022280F83D2003685A689D6817
:100AC00022F070060A6832435A600D4B02689A425F
:100AD00008D0B2F1804F05D00A4B9A4202D00A4B9F
:100AE0009A4204D1496825F080031943916080F847
:100AF0003D40002180F83C10084670BD022070BDCA
:100B0000002C0140000400400008004010B5040023
:100B100003D094F83D0010B107E0012010BD002083
:100B200084F83C00204600F01FF8022084F83D00C5
:100B3000211D206800F0A2FC012084F8460084F802
:100B40003E0084F83F0084F8400084F8410084F8B7
:100B5000420084F8430084F8440084F8450084F897
:100B60003D00002010BD000008B50068B0F1804FC6
:100B700012D10A48C16941F00101C161C069002276
:100B800000F00100009011461C20FFF7C7FCBDE8F3
:100B900008401C20FFF7B4BC08BD00000010024054
:100BA00090F83D10012901D001207047022180F802
:100BB0003D100168CA6842F00102CA6000680B4932
:100BC000884208D0B0F1804F05D00949884202D050
:100BD0000849884204D1816801F00701062903D041
:100BE000016841F00101016000207047002C0140C4
:100BF000000400400008004070B5044690F83C0036
:100C0000012817D0012584F83C50022084F83D00CB
:100C10002068826822F0770222F47F4282600868AE
:100C2000502830D00DDC20284DD005DC98B310289A
:100C30003BD148E0022070BD302844D0402834D158
:100C400039E0602828D0702806D0B0F5805F2CD01D
:100C5000B0F5005F29D10AE0CB68D1E90121206815
:100C600000F042FC2068816841F0770109E0CB6820
:100C7000D1E90121206800F037FC2068816841F447
:100C80008041816011E0CA684968206800F03EFC3C
:100C90005021206807E016E0CA684968206800F023
:100CA00046FC6021206800F029FC84F83D500020BB
:100CB00084F83C0070BDCA684968206800F026FCD2
:100CC00040212068EFE7226801461046EBE77047B5
:100CD00070B50446006801694FF00005C9438907F3
:100CE00015D4C168C943890711D4E91E01610120E7
:100CF0002077206880698007204602D0FFF7E7FF51
:100D000004E000F098F8204600F096F82577206877
:100D10000169C943490717D4C168C943490713D4B6
:100D20006FF004010161022020772068806910F4CF
:100D3000407F204602D0FFF7CAFF04E000F07BF8B6
:100D4000204600F079F8257720680169C943090732
:100D500016D4C168C943090712D46FF008010161B4
:100D6000042020772068C0698007204602D0FFF762
:100D7000AEFF04E000F05FF8204600F05DF8257754
:100D800020680169C943C90617D4C168C943C906A7
:100D900013D46FF010010161082020772068C0692A
:100DA00010F4407F204602D0FFF791FF04E000F0EE
:100DB00042F8204600F040F8257720680169C943D1
:100DC000C90708D1C168C943C90704D1891E016197
:100DD000204600F033F820680169C943090609D4A8
:100DE000C168C943090605D46FF08001016120463E
:100DF000FFF756FE20680169C943490609D4C16856
:100E0000C943490605D46FF040010161204600F056
:100E100085F820680169C94389060BD4C168C943B4
:100E2000890607D46FF0200101612046BDE87040BB
:100E3000FFF737BE70BD7047704700002DE9F041E5
:100E40000068B0F1804F4ED1314C324F324EA07815
:100E5000401CA07020780025F0B3E088401C80B2D0
:100E6000E0802189491C2181232806D2012280218A
:100E70003846FFF7E1FA002207E0462809D20022AF
:100E800080213846FFF7D8FA012220213046FFF7AB
:100E9000D3FA20894FF4FA77FA2801D2012202E02E
:100EA000B84204D2002210213046FFF7C5FAE0888C
:100EB000462800D1E5802089B84200D12581A0785C
:100EC0000A2810D1A570207800B3E178491CC9B276
:100ED000E170C82907D100E007E0E570002802D0E2
:100EE00080F001002070BDE8F08101222021304611
:100EF000FFF7A2FA002210213046FFF79DFA0022E8
:100F000080213846FFF798FAE580D7E7E570EAE7F1
:100F10000000002000080140000C014070477047AD
:100F200070470000F8B5026804461068D16853693C
:100F300010F00F0F4FF0000553D003F0010601F43D
:100F4000907737435FD0C20705D0CA0503D5226C1E
:100F500042F001022264420705D5DA0703D0226C71
:100F600042F002022264820705D5DA0703D0226C20
:100F700042F004022264020707D501F02002324346
:100F800003D0226C42F008022264226C002A34D082
:100F9000800604D5880602D5204600F0FAFA2068BB
:100FA0004069216CC0F38010090700D430B320469B
:100FB00000F0D7FA2068416949061BD5416921F044
:100FC00040014161A06BA8B158494163A06BFFF794
:100FD000F7F8002811D0A06B416B01B0BDE8F040DC
:100FE000084783060FD58B060DD52046BDE8F8408F
:100FF00000F0CFBA2046FFF793FFF8BD2046FFF779
:101000008FFF2564F8BD266B2023012E52D1C60622
:1010100050D5CE064ED510685068009050694006F5
:101020002AD5A16B086840680004000CEAD0A68DA0
:101030008642E7D9E0858869202818D0D06820F456
:101040008070D0602068416921F001014161206811
:10105000416921F04001416184F83E3025632068F8
:10106000C16821F01001C160A06BFFF785F8A08D69
:10107000E18D401A81B219E0A08DE18D401A81B254
:10108000E08D0028BED00029BCD0D06820F490703C
:10109000D0602068426922F00102426184F83E304B
:1010A00025632068C26822F01002C2602046FFF764
:1010B00036FFF8BD05062BD50D0629D594F83D0061
:1010C0002128F6D1A068B0F5805F01D12069B0B1C8
:1010D000206A411C2162216800784860E08C401E33
:1010E0000004000CE084E4D12068C16821F0800194
:1010F000C1602068C16841F04001C160F8BD206A4C
:101100000088C0F308005060206A801C2062E5E778
:101110004006F3D54806F1D5D168204621F04001BC
:10112000D16084F83D3000F0ABF8F8BD53150008ED
:1011300070B5040004D094F83D00002510B106E01D
:10114000012070BD84F83C50204600F023F8242094
:1011500084F83D002068C16821F40051C160204638
:1011600000F072FA2068016921F490410161206861
:10117000416921F02A0141612068C16841F40051B0
:10118000C1602564202084F83D0084F83E000020E2
:1011900070BD000030B585B0002400940194029425
:1011A00003940068184988422BD11848C16941F45A
:1011B0000031C161C16901F400310491816941F0DC
:1011C000040181618069124D00F004000490042044
:1011D0000090022001900320039069462846FFF703
:1011E0003BF80820CDE90004694628460294FFF741
:1011F00033F8002211462620FFF790F92620FFF74A
:101200007FF905B030BD00000044004000100240EE
:101210000008014090F83E30202B0ED159B152B158
:1012200090F83C30012B08D0012380F83C3000239B
:10123000036300F065BA0120704702207047000088
:101240000A480C490A4B027808781A54401CC0B26C
:101250000870042804D9002008700749012008708C
:10126000012202490548FFF7D5BF00000400002015
:101270000A0000200F00002001000020680000206C
:101280007047FEE72DE9F04385B00025334800950F
:10129000019502950395816941F020018161816981
:1012A00001F020010491816941F0040181618169AB
:1012B00001F004010491816941F0080181618069B4
:1012C000DFF89C8000F0080004900022A021404636
:1012D000FFF7B2F8012240214046FFF7ADF8DFF8F2
:1012E0008490002245F6D0714846FFF7A5F8012208
:1012F0004AF220014846FFF79FF81020CDE900058B
:101300000124694602944046FEF7A6FFA020CDE9DD
:1013100000040226CDE9024669464046FEF79CFFDE
:10132000402701AA009782E8700069464046FEF710
:1013300093FF4FF6B070CDE90004CDE9024669464F
:101340004846FEF789FF01AA009782E870006946C7
:101350004846FEF781FF05B0BDE8F083001002406B
:1013600000080140000C014010B586B0002416486A
:10137000009401940294039404944FF080410594E6
:1013800001604721C0E9011441F28731C0E903142B
:101390008461FFF7BBFB08B1FEF7ECFE4FF4805011
:1013A000009069460848FFF727FC08B1FEF7E2FE07
:1013B000049404A904480594FFF774FB002801D0A5
:1013C000FEF7D8FE06B010BD200000200C4810B576
:1013D0000A4901604FF416514160002181600C22DE
:1013E000C160C0E904128161C161FFF7A1FE00285C
:1013F00003D0BDE81040FEF7BDBE10BD0044004064
:1014000068000020FEE7FEE770477047FFF720B84E
:1014100030B58FB028216846FEF78DFE14210AA84A
:10142000FEF789FE01210804CDE900100024029492
:1014300002250491CDE907504FF4E0100990684669
:10144000FFF78AF908B172B6FEE70F20CDE90A0569
:101450004FF48060CDE90C4002210AA80E94FFF7FA
:101460008FF8002801D072B6FEE70FB030BD70478C
:101470000148FFF72DBC000020000020F0B50268F5
:10148000164B174C174D4FF08047984205D0B84285
:1014900003D0A04201D0A84203D122F070064A68CE
:1014A0003243984205D0B84203D0A04201D0A842AE
:1014B00003D122F44074CA6822434C6922F08002AE
:1014C000224302608A68C2620A688262984201D13D
:1014D0000969016301214161F0BD0000002C014058
:1014E000000400400008004010B5846842EA03226E
:1014F00024F47F440A432243826010BD826822F0B4
:1015000070020A4342F007018160704710B5036A18
:10151000046A24F001040462846924F0F00444EABB
:10152000021423F00A020A438461026210BD10B55E
:10153000036A23F0100303628369046A23F470438F
:1015400043EA023224F0A00343EA011182610162FE
:1015500010BD10B5406A0021C185C184FFF7E0FCD1
:1015600010BD0168CA6822F49072CA6001684A69B5
:1015700022F001024A61016B012904D10168CA68A5
:1015800022F01002CA60202180F83E100021016381
:10159000704708B590F83E10222901D0022008BDFE
:1015A00082684FF480539A4201D1016921B1816A66
:1015B0009A421BD04AB10AE00268816A5268C2F3BB
:1015C00008020A80816A891C08E0026972B1026817
:1015D000526802F07F020A70816A491C8162C18DE3
:1015E000491E0904090CC18503D019E0026852683C
:1015F000F1E70168CA6822F02002CA600168CA687F
:1016000022F48072CA6001684A6922F001024A61CC
:10161000202180F83E10016B012903D0FFF710FE56
:10162000002008BD002101630168CA6822F0100291
:10163000CA6001680A68D20602D50A684968009142
:10164000818DFFF76CFCEBE770B50446006801691B
:10165000E26821F44051114301612169A068084307
:10166000616908432168CA6841F20C639A430243E6
:10167000CA6020684169A26921F440711143416147
:101680001E492068884202D1FFF720F801E0FFF7E9
:101690000DF800EBC00101EB0012606864218000CE
:1016A000B2FBF0F3B3FBF1F36FF018067343B2FB38
:1016B000F0F5B2FBF0F605EB8305322303EB0515DD
:1016C000B5FBF1F5B6FBF1F605F0F00505EB0615F7
:1016D000B2FBF0F6B2FBF0F0B0FBF1F06FF01802E5
:1016E000504306EB800003EB0010B0FBF1F02168E3
:1016F00000F00F002844886070BD000000380140F1
:1017000081628285C28500210164222280F83E2008
:1017100080F83C100168CA6842F48072CA600168AF
:101720004A6942F001024A610068C16841F0200143
:10173000C1600020704700000148FFF7F3BB0000C4
:1017400068000020FEE70907090E002804DB00F10D
:10175000E02080F80014704700F00F0000F1E02056
:1017600080F8141D704702E008C8121F08C1002A43
:10177000FAD170477047002001E001C1121F002A12
:10178000FBD170472DE9F0470122774C884605468A
:10179000D60331462046FEF74FFE01225703394655
:1017A0002046FEF749FE2A4631462046FEF744FE13
:1017B00085F0010239462046FEF73EFE611540469F
:1017C0004D10CE004F014FF400684FF480690A2895
:1017D00071D2DFE800F0051F273C60717D839DB763
:1017E00001222046FEF728FE012280212046FEF736
:1017F00023FE012229462046FEF71EFE0122314625
:101800002046FEF719FE012239462046FEF714FE57
:10181000012201E0002262E041462046FEF70CFE74
:10182000002232E001222046FEF706FE012280213E
:101830002046FEF701FE002229462046FEF7FCFD69
:10184000012231462046FEF7F7FD012213E0012276
:101850002046FEF7F1FD012280212046FEF7ECFD37
:10186000012229462046FEF7E7FD012231462046A7
:10187000FEF7E2FD002239462046FEF7DDFD00229C
:1018800041462046FEF7D8FD012249462046BDE8E4
:10189000F047FEF7D1BD00222046FEF7CDFD012224
:1018A00080212046FEF7C8FD012229462046FEF78A
:1018B000C3FD002206E055E001222046FEF7BCFDF4
:1018C000002244E031462046FEF7B6FD002233E018
:1018D00001222046FEF7B0FD00221EE00122204634
:1018E000FEF7AAFD012280212046FEF7A5FD012278
:1018F00029462046FEF7A0FD002231462046FEF78D
:101900009BFD002239462046FEF796FD002283E724
:1019100001222046FEF790FD012280212046FEF79D
:101920008BFD012229462046FEF786FD0122314625
:101930002046FEF781FD012239462046FEF77CFD58
:1019400001229DE701222046FEF776FD012280213B
:101950002046FEF771FD012229462046FEF76CFD68
:101960000122AFE7BDE8F087000C0140FEF778FDEB
:10197000FFF74EFDFFF786FCFFF7F6FCFFF726FDAD
:10198000012222492248FFF745FC0022602121481C
:10199000FEF752FD2048FFF703F91C4CA41D012659
:1019A000A4F10A056878C8B1002068702078612821
:1019B00014D12079622811D16078202817D06421B1
:1019C00030384843A17801EB810100EB4100E17818
:1019D0000844A0F50071163900D12E7008210020AE
:1019E000FFF7D0FE08210120FFF7CCFEDAE7A07850
:1019F000202808D0E178303800EB800001EB40006F
:101A00003628EAD0EAE7E078FAE700000400002090
:101A100068000020000801402000002000000000B5
:101A2000000000000102030406070809000000008E
:101A300001020304541A00080000002020000000E6
:101A400066170008741A00082000002090040000A7
:101A500076170008000000000000000000000000F1
:101A60000000000001000000100000000000000065
:041A70000024F4005A
:04000005080000ED02
:00000001FF
